:040000000EEF00F00F
:04000800B1EF33F031
:100018008FEF54F0B3EF45F0D0EC3CF012C0E6F1AE
:1000280013C0E7F114C0E8F115C0E9F10101EC6B68
:10003800ED6B00EC52F0EAC0CFF1EBC0D0F1ECC0B0
:10004800D1F1EDC0D2F1EEEC51F0EAC0D3F1EBC042
:10005800D4F1ECC0D5F1EDC0D6F1B0EC53F017C037
:10006800D7F118C0D8F1000E0001756F000E766F39
:10007800200E776F410E786FCFC171F0D0C172F04A
:10008800D1C173F0D2C174F0C1EC08F071C08AF02C
:1000980072C08BF073C08CF074C08DF07BEC29F0CB
:1000A8008AC0D9F18BC0DAF1000E0001756F000E1D
:1000B800766F200E776F410E786FD3C171F0D4C17F
:1000C80072F0D5C173F0D6C174F0C1EC08F071C0FC
:1000D8008AF072C08BF073C08CF074C08DF07BEC2A
:1000E80029F08AC0DBF18BC0DCF10101E26BE36B24
:1000F800E46BE56B7FEC54F00101DD6F73EC54F0B9
:100108000101DE6F70EC54F00101DF6F88EC54F0F0
:100118000101E06F76EC54F0E806D8A496EF00F001
:1001280098EF00F09AEF00F00101EC817CEC54F0BC
:100138000009D8B4A2EF00F0A4EF00F0A6EF00F099
:100148000101EC830101E651D8B4ADEF00F0AFEF47
:1001580000F0B0EF00F0EC85E751D8B4B6EF00F04E
:10016800B8EF00F0B9EF00F0EC87000E7DEC2DF051
:100178000009D8B4C2EF00F0C4EF00F0C6EF00F0F9
:100188000101EC89030E7DEC2DF00009D8B4CFEF06
:1001980000F0D1EF00F0D3EF00F00101ED81040E83
:1001A8007DEC2DF00009D8B4DCEF00F0DEEF00F0B4
:1001B800E0EF00F00101ED83050E7DEC2DF0000964
:1001C800D8B4E9EF00F0EBEF00F0EDEF00F001013B
:1001D800ED85060E7DEC2DF00009D8B4F6EF00F0A1
:1001E800F8EF00F0FAEF00F00101ED87010E7DEC69
:1001F8002DF00009D8B403EF01F005EF01F007EF87
:1002080001F00101ED89020E7DEC2DF00009D8B452
:1002180010EF01F012EF01F014EF01F00101ED8B86
:1002280028EC53F00009D8B41CEF01F01EEF01F0E0
:1002380020EF01F00101ED8D0101F16B030EF16575
:1002480028EF01F02AEF01F02CEF01F061EF01F047
:10025800EB6B000EEA6FEA0E126E010E136EF1518F
:10026800DEEC49F00009D8B43CEF01F03EEF01F0B4
:100278004FEF01F0F1C1EEF0010E0001EF6FEE2B30
:1002880048EF01F0D890EF37EE2F46EF01F000016C
:10029800EF510101E2130101F151020DC70EF324E0
:1002A800D96E010EF420DA6E6000ABF7DEFF600055
:1002B800AFF7DDFFF12B22EF01F0F16B030EF165D3
:1002C80068EF01F06AEF01F06CEF01F04DEF02F01A
:1002D800F15167EC4FF012C0EFF113C0F0F10101DA
:1002E800F151020D6F00CCFFEEF16000BFF7D9FFAE
:1002F8006000C3F7DAFFDF50D8B485EF01F087EF6D
:1003080001F098EF01F0F1C1EEF0010E0001EF6F7E
:10031800EE2B91EF01F0D890EF37EE2F8FEF01F031
:100328000001EF510101E31320EE01F0EF51D9264E
:10033800F051DA22DF50D8B4A4EF01F0A6EF01F0B3
:10034800B7EF01F0EEC1EEF0010E0001EF6FEE2BFA
:10035800B0EF01F0D890EF37EE2FAEEF01F00001CB
:10036800EF510101E41320EE02F0EF51D926F051CC
:10037800DA22DF50D8B4C3EF01F0C5EF01F0D8EFAF
:1003880001F0EEC1EEF0010E0001EE27010EEF6F55
:10039800EE2BD1EF01F0D890EF37EE2FCFEF01F031
:1003A8000001EF510101E41320EE03F0EF51D926CB
:1003B800F051DA22DF50D8B4E4EF01F0E6EF01F0B3
:1003C800F7EF01F0EEC1EEF0010E0001EF6FEE2B3A
:1003D800F0EF01F0D890EF37EE2FEEEF01F00001CB
:1003E800EF510101E51320EE04F0EF51D926F05149
:1003F800DA22DF50D8B403EF02F005EF02F018EF6D
:1004080002F0EEC1EEF0010E0001EE27010EEF6FD3
:10041800EE2B11EF02F0D890EF37EE2F0FEF02F02E
:100428000001EF510101E51320EE05F0EF51D92647
:10043800F051DA22EE51020DB70EF324E16E010EEF
:10044800F420E26E6F007BFFE6FF6F0077FFE5FFA9
:1004580020EE07F0EF51D926F051DA22EE510001D3
:10046800EE6FEF6BD890EE37EF37020EEE27000EE7
:10047800EF23B70EEE25E16E010EEF21E26E6F005D
:100488007BFFE6FF6F0077FFE5FF0101F12B62EFCD
:1004980001F0F16B070EF16554EF02F056EF02F030
:1004A80058EF02F06AEF02F0F1511DEC51F0000133
:1004B800EE6FA30E0101F125D96EDA6A010EDA2278
:1004C8006000BBF3DFFFF12B4EEF02F0F16B050E7E
:1004D800F16571EF02F073EF02F075EF02F08AEF49
:1004E80002F0F1518CEC4DF00101F151020DAB0E0F
:1004F800F324D96E010EF420DA6E60004BF0DEFFB3
:1005080060004FF0DDFFF12B6BEF02F0D2BE8FEFF2
:1005180002F092EF02F0010E93EF02F0000EE16F8D
:10052800D29EECC100F2EDC101F2D9C102F2DAC1EA
:1005380003F2DBC104F2DCC105F2D7C106F2D8C16F
:1005480007F2E2C108F2E3C111F2E4C112F2E5C117
:1005580013F2DDC124F2DEC125F2DFC126F2E0C1CB
:100568002FF2F16B030EF165BCEF02F0BEEF02F063
:10057800C0EF02F0D9EF02F0F151020DC70EF324DB
:10058800D96E010EF420DA6EF151020D090EF32432
:10059800E16E020EF420E26E6F007BFFE6FF6F0053
:1005A80077FFE5FFF12BB6EF02F0F16B070EF1656F
:1005B800E0EF02F0E2EF02F0E4EF02F0FDEF02F00C
:1005C800F151020DB70EF324D96E010EF420DA6E44
:1005D800F151020D140EF324E16E020EF420E26EC6
:1005E8006F007BFFE6FF6F0077FFE5FFF12BDAEF87
:1005F80002F0F16B070EF16504EF03F006EF03F06C
:1006080008EF03F01AEF03F0A30EF125D96EDA6AAA
:10061800010EDA22270EF125E16EE26A020EE222CD
:100628006F007FFFE7FFF12BFEEF02F0F16B050E85
:10063800F16521EF03F023EF03F025EF03F03EEF20
:1006480003F0F151020DAB0EF324D96E010EF42024
:10065800DA6EF151020D300EF324E16E020EF42031
:10066800E26E6F007BFFE6FF6F0077FFE5FFF12B7F
:100678001BEF03F0E151D8A444EF03F049EF03F076
:100688000001EE6BEE2B4BEF03F00001EE6BEE3347
:10069800EE33D250EE197F0BEE19D26E120013C151
:1006A800CAF014C1CBF015C1CCF016C1CDF08AC088
:1006B800CAF08BC0CBF08CC0CCF08DC0CDF000015F
:1006C800B16B000EB06FCD5109E1800ECC5DD8A0A2
:1006D80070EF03F072EF03F079EF03F0CDAF77EF2F
:1006E80003F079EF03F0D5EF03F0D890CA358E6F99
:1006F800CB358F6FCC35906FCD35916F8E518F1173
:1007080090119111D8A48BEF03F08DEF03F09FEFB8
:1007180003F0000ECA6F000ECB6F800ECC6FFF0E79
:10072800CD6FCAC08AF0CBC08BF0CCC08CF0CDC0E6
:100738008DF065EF06F0CDAFA4EF03F0A6EF03F060
:10074800B5EF03F00101506B210E4F6FFF0E000152
:10075800CA6FFF0ECB6FFF0ECC6F7F0ECD6F95EF7C
:1007680003F0E70EB027FF0EB123CAC071F0CBC06B
:1007780072F0CCC073F0CDC074F0000E756F000E2F
:10078800766F000E776F4C0E786FC1EC08F071C071
:10079800CAF072C0CBF073C0CCF074C0CDF002EFD9
:1007A80004F0800ECC5D7F0ECD59D8A0DEEF03F0AB
:1007B800E0EF03F0EAEF03F08AC08AF08BC08BF019
:1007C8008CC08CF08DC08DF065EF06F0800ECC19D2
:1007D80009E13F0ECD19CA11CB11D8A4F6EF03F0E9
:1007E800F8EF03F002EF04F0000E8A6F000E8B6F33
:1007F800000E8C6F000E8D6F65EF06F00D0E000178
:10080800CA27FB0ECB234A0ECC23000ECD23CAC029
:100818008EF0CBC08FF0CCC090F0CDC091F0180E08
:100828001BEF04F0D890913390338F338E33E82E3A
:1008380016EF04F0810E8E25926FFF0E8F21936FB5
:100848009251B0279351B123FF0ECA158E6FFF0E38
:10085800CB158F6F7F0ECC15906F000ECD15916F55
:10086800F30E8E25CA6F040E8F21CB6F350E9021A3
:10087800CC6F3F0E9121CD6FCAC030F0CBC031F0A4
:10088800CCC032F0CDC033F0000E346E000E356EA1
:10089800800E366E3F0E376E2EEC4BF030C0CAF02D
:1008A80031C0CBF032C0CCF033C0CDF0CAC038F084
:1008B800CBC039F0CCC03AF0CDC03BF0000E246E6E
:1008C800000E256E000E266E400E276ECAC020F060
:1008D800CBC021F0CCC022F0CDC023F066EC06F0EE
:1008E80020C03CF021C03DF022C03EF023C03FF0C4
:1008F80004EC0DF038C0BAF039C0BBF03AC0BCF017
:100908003BC0BDF0BAC071F0BBC072F0BCC073F0A0
:10091800BDC074F0BAC075F0BBC076F0BCC077F04B
:10092800BDC078F0C1EC08F071C0BEF072C0BFF075
:1009380073C0C0F074C0C1F0BEC071F0BFC072F027
:10094800C0C073F0C1C074F0BEC075F0BFC076F00F
:10095800C0C077F0C1C078F0C1EC08F071C0C2F037
:1009680072C0C3F073C0C4F074C0C5F0130E246E17
:10097800CE0E256ECC0E266E3E0E276E260E00017C
:10098800756F9E0E766F780E776F3E0E786FC2C0C9
:1009980071F0C3C072F0C4C073F0C5C074F0C1EC8C
:1009A80008F071C020F072C021F073C022F074C04A
:1009B80023F066EC06F020C0C6F021C0C7F022C0C4
:1009C800C8F023C0C9F0C6C071F0C7C072F0C8C073
:1009D80073F0C9C074F0C2C075F0C3C076F0C4C06B
:1009E80077F0C5C078F0C1EC08F071C098F072C01B
:1009F80099F073C09AF074C09BF0AA0E246EAA0EE8
:100A0800256E2A0E266E3F0E276EEE0E0001756FBC
:100A1800E90E766F910E776F3E0E786FC2C071F057
:100A2800C3C072F0C4C073F0C5C074F0C1EC08F064
:100A380071C020F072C021F073C022F074C023F09E
:100A480066EC06F020C0C6F021C0C7F022C0C8F08E
:100A580023C0C9F0C6C071F0C7C072F0C8C073F037
:100A6800C9C074F0BEC075F0BFC076F0C0C077F0E2
:100A7800C1C078F0C1EC08F071C09CF072C09DF064
:100A880073C09EF074C09FF09CC020F09DC021F000
:100A98009EC022F09FC023F098C024F099C025F092
:100AA8009AC026F09BC027F066EC06F020C094F0B0
:100AB80021C095F022C096F023C097F0000E0001E7
:100AC800756F000E766F000E776F3F0E786FCAC095
:100AD80071F0CBC072F0CCC073F0CDC074F0C1EC33
:100AE80008F071C0C6F072C0C7F073C0C8F074C017
:100AF800C9F0C6C071F0C7C072F0C8C073F0C9C0F1
:100B080074F0CAC075F0CBC076F0CCC077F0CDC019
:100B180078F0C1EC08F071C0B2F072C0B3F073C0E5
:100B2800B4F074C0B5F0B0C012F0B1C013F0000E4C
:100B380013BEFF0E146E156E010E45EC1CF012C0AC
:100B4800B6F013C0B7F014C0B8F015C0B9F0BAC009
:100B580075F0BBC076F0BCC077F0BDC078F094C02B
:100B680024F095C025F096C026F097C027F0B2C0B3
:100B780020F0B3C021F0B4C022F0B5C023F066EC79
:100B880006F020C071F021C072F022C073F023C0BB
:100B980074F0C1EC08F071C0A0F072C0A1F073C08D
:100BA800A2F074C0A3F0D10E0001756FF70E766F36
:100BB800170E776F370E786FB6C071F0B7C072F046
:100BC800B8C073F0B9C074F0C1EC08F071C024F07B
:100BD80072C025F073C026F074C027F0A0C020F0C2
:100BE800A1C021F0A2C022F0A3C023F066EC06F059
:100BF80020C0A4F021C0A5F022C0A6F023C0A7F011
:100C0800B2C034F0B3C035F0B4C036F0B5C037F078
:100C1800A4C030F0A5C031F0A6C032F0A7C033F0B0
:100C28002EEC4BF030C0A8F031C0A9F032C0AAF0C9
:100C380033C0ABF0CAC024F0CBC025F0CCC026F03E
:100C4800CDC027F0A8C020F0A9C021F0AAC022F08A
:100C5800ABC023F066EC06F020C0ACF021C0ADF0CC
:100C680022C0AEF023C0AFF0ACC020F0ADC021F080
:100C7800AEC022F0AFC023F0800E0001756F710E78
:100C8800766F310E776F3F0E786FB6C071F0B7C0D0
:100C980072F0B8C073F0B9C074F0C1EC08F071C05C
:100CA80024F072C025F073C026F074C027F066ECFB
:100CB80006F020C08AF021C08BF022C08CF023C03F
:100CC8008DF012002350800B2C6E235023242E6E9F
:100CD80022AE71EF06F073EF06F074EF06F02E8087
:100CE8002E50D8B47AEF06F07CEF06F090EF06F0BD
:100CF8002E28D8A482EF06F084EF06F08CEF06F0D9
:100D0800000E206E000E216E000E226E000E236E65
:100D1800228E236A98EF06F0000E206E000E216ED8
:100D2800000E226E000E236E2750800B2D6E2C5065
:100D38002D18D8B4A2EF06F0A4EF06F0A5EF06F040
:100D48002C8C275027242D6E26AEADEF06F0AFEF82
:100D580006F0B0EF06F02D802D50D8B4B6EF06F0AF
:100D6800B8EF06F0CCEF06F02D28D8A4BEEF06F0B9
:100D7800C0EF06F0C8EF06F0000E246E000E256ED8
:100D8800000E266E000E276E268E276AD4EF06F018
:100D9800000E246E000E256E000E266E000E276EC5
:100DA8002E502D5CD8B0DBEF06F0DDEF06F004EF37
:100DB80007F02CACE2EF06F0E4EF06F0E6EF06F001
:100DC800800E2C1A2EC02FF02DC02EF02FC02DF023
:100DD80020C02FF024C020F02FC024F021C02FF015
:100DE80025C021F02FC025F022C02FF026C022F008
:100DF8002FC026F023C02FF027C023F02FC027F0E4
:100E08002F6A2E502DC028F0296A285E000E295A14
:100E180029BE18EF07F0295009E11A0E285CD8A05E
:100E280018EF07F01AEF07F051EF07F020502110E4
:100E380022102310D8A423EF07F026EF07F0010EA5
:100E480027EF07F0000E2F6E000E206E000E216EA9
:100E5800000E226E000E236E2DC02EF05AEF07F002
:100E68002FA039EF07F03BEF07F041EF07F0D890DC
:100E78002F3001092F6E43EF07F0D8902F3220A0B2
:100E880048EF07F04AEF07F04BEF07F02F8E2334B7
:100E980023322232213220322E2A2D502E5CD8A025
:100EA80058EF07F05AEF07F034EF07F02CBC5FEF6C
:100EB80007F061EF07F0A1EF07F02E50D8A467EF15
:100EC80007F069EF07F073EF07F0000E206E000ED1
:100ED800216E000E226E000E236EC0EF08F0245023
:100EE800202625502122265022222750232223A0C3
:100EF80080EF07F082EF07F02EEF08F02FA087EFC2
:100F080007F089EF07F08FEF07F0D8902F3001092D
:100F18002F6E91EF07F0D8902F3220A096EF07F0B0
:100F280098EF07F099EF07F02F8E233423322232FF
:100F3800213220322E2A2EEF08F02450205C255032
:100F48002158265022582350800A286E2750800A9C
:100F58002858D8B0B2EF07F0B4EF07F0DFEF07F08A
:100F68002050245C286E21502558296E225026587E
:100F78002A6E235027582B6EFF0E2824206EFF0E52
:100F88002920216EFF0E2A20226EFF0E2B20236EB1
:100F9800800E2C1A2F6C2F50D8A4D5EF07F0D7EF5E
:100FA80007F0E7EF07F0010E2026000E212222228B
:100FB8002322E7EF07F02450205E2550215A2650BF
:100FC800225A2750235A2050211022102310D8A427
:100FD800F0EF07F0F2EF07F027EF08F02F50D8A452
:100FE800F8EF07F0FAEF07F027EF08F0000E206E91
:100FF800000E216E000E226E000E236EC0EF08F068
:10100800D89020362136223623362FAE0EEF08F040
:1010180010EF08F011EF08F020802FA016EF08F06D
:1010280018EF08F01CEF08F0D8802F361EEF08F0F4
:10103800D8902F362E50D8B424EF08F026EF08F0B9
:1010480027EF08F02E0622AE2CEF08F02EEF08F05E
:1010580004EF08F02D6A2FAE34EF08F036EF08F0F1
:101068004EEF08F02FC028F07F0E2816D8B43FEFB7
:1010780008F041EF08F045EF08F0010E2D6E4EEF35
:1010880008F020A04AEF08F04CEF08F04EEF08F007
:1010980041EF08F02D50D8B454EF08F056EF08F09F
:1010A80081EF08F0010E2026000E212222222322A1
:1010B80023A061EF08F063EF08F081EF08F020C08B
:1010C80028F021C029F022C02AF023C02BF02B34AD
:1010D8002B322A322932283228C020F029C021F0A8
:1010E8002AC022F02BC023F02E28D8B47EEF08F0B7
:1010F80080EF08F081EF08F02E2A2E28D8B487EF69
:1011080008F089EF08F091EF08F02E50D8A48FEF7F
:1011180008F091EF08F0A2EF08F0000E206E000E24
:10112800216E000E226E000E236E2E50D8A49FEF63
:1011380008F0A1EF08F0A2EF08F02C6A2EA0A7EFA4
:1011480008F0A9EF08F0ACEF08F0228EADEF08F038
:10115800229ED8902E30236E2CAEB5EF08F0B7EF54
:1011680008F0B8EF08F0238E20C020F021C021F04D
:1011780022C022F023C023F0120000017451800B1A
:101188007D6F74517425836F73AFCDEF08F0CFEF87
:1011980008F0D0EF08F083818351D8B4D6EF08F077
:1011A800D8EF08F0EBEF08F08329D8A4DEEF08F0B9
:1011B800E0EF08F0E8EF08F0000E716F000E726FB4
:1011C800000E736F000E746F738FF3EF08F0000E4C
:1011D800716F000E726F000E736F000E746F78518E
:1011E800800B7D1B785178257E6F77AFFEEF08F076
:1011F80000EF09F001EF09F07E817E51D8B407EFC6
:1012080009F009EF09F01CEF09F07E29D8A40FEFC7
:1012180009F011EF09F019EF09F0000E756F000ED3
:10122800766F000E776F000E786F778F24EF09F0D6
:10123800000E756F000E766F000E776F000E786FD8
:101248007E51D8B42AEF09F02CEF09F034EF09F0F9
:101258008351D8A432EF09F034EF09F03EEF09F0DA
:10126800000E716F000E726F000E736F000E746FB8
:10127800E6EF0AF0775171036F00CCFF88F06F003A
:10128800D0FF89F088517F6F806B816B826B8951A9
:10129800846F856B866B876B765172036F00CCFF0A
:1012A80088F06F00D0FF89F088517F27000E8023D7
:1012B8008123822389518427000E8523862387234F
:1012C800755173036F00CCFF88F06F00D0FF89F071
:1012D80088517F27000E8023812382238951842708
:1012E800000E85238623872381C082F080C081F089
:1012F8007FC080F07F6B755172036F00CCFF88F060
:101308006F00D0FF89F088517F2789518023000E14
:101318008123000E8223765171036F00CCFF88F081
:101328006F00D0FF89F088517F2789518023000EF4
:101338008123000E822381C082F080C081F07FC0AB
:1013480080F07F6B755171036F00CCFF88F06F00E0
:10135800D0FF89F088517F2789518023000E81238F
:10136800000E8223775172036F00CCFF88F06F0064
:10137800D0FF89F08851842789518523000E862360
:10138800000E8723765173036F00CCFF88F06F003F
:10139800D0FF89F08851842789518523000E862340
:1013A800000E8723775173036F00CCFF88F06F001E
:1013B800D0FF89F08851796F89517A6F7B6B7C6B8C
:1013C8007BC07CF07AC07BF079C07AF0796B795178
:1013D80084277A5185237B5186237C5187237FC0BC
:1013E80079F080C07AF081C07BF082C07CF0190E61
:1013F80003EF0AF0D8907C337B337A337933E82EC5
:10140800FEEF09F0795184277A5185237B51862391
:101418007C51872381C082F080C081F07FC080F03A
:101428007F6B7E5183C079F07A6B7927000E7A231F
:10143800820E7925886FFF0E7A21896F39EF0AF0BD
:10144800D890843785378637873782AF2EEF0AF0F2
:1014580030EF0AF031EF0AF08481D8907F37803777
:10146800813782378807D8A0890786AF3EEF0AF010
:1014780040EF0AF024EF0AF07E6B82AF46EF0AF0E5
:1014880048EF0AF06CEF0AF0FF0E7F15796FFF0E38
:1014980080157A6FFF0E81157B6F7F0E82157C6F2A
:1014A80079517A117B117C11D8B45DEF0AF05FEFA6
:1014B8000AF063EF0AF0010E7E6F6CEF0AF084A168
:1014C80068EF0AF06AEF0AF06CEF0AF05FEF0AF0D3
:1014D8007E51D8B472EF0AF074EF0AF098EF0AF070
:1014E800010E8427000E85238623872387A17FEF9B
:1014F8000AF081EF0AF098EF0AF084C079F085C00D
:101508007AF086C07BF087C07CF07C357C337B33F7
:101518007A33793379C084F07AC085F07BC086F05D
:101528007CC087F0884B892B89BFA3EF0AF08951CB
:1015380008E18829D8A0A3EF0AF0A5EF0AF0AFEFD9
:101548000AF0000E846F000E856F800E866F7F0E86
:10155800876FDCEF0AF089BFBCEF0AF0895106E11A
:101568008805D8B0BAEF0AF0BCEF0AF0C7EF0AF066
:10157800000E846F000E856F000E866F000E876F59
:101588007D6BDCEF0AF088C083F0FF0E8417FF0E36
:1015980085177F0E8617000E871783A1D6EF0AF0EE
:1015A800D8EF0AF0D9EF0AF0868FD8908331876F89
:1015B8007D51871384C071F085C072F086C073F0C6
:1015C80087C074F0120000017F6F76EC54F00001C0
:1015D800776F7CEC54F00001786F79EC54F00001DF
:1015E800796F8AEC54F000017A6F8CEC3FF00001BF
:1015F8007B6F88EC54F00001756F8CEC54F000019F
:101608007E6F806B060E80650CEF0BF00EEF0BF013
:1016180010EF0BF063EF0BF08051030D990EF324DC
:10162800F66EED0EF420F76E0800F5507DEC2DF007
:1016380000017C6F0C0E8025D96EDA6A010EDA2261
:101648007C51DE18D8A42BEF0BF02EEF0BF0010E17
:101658002FEF0BF0000E716F0C0E8025D96EDA6A31
:10166800010EDA226000F3F1DFFF71C012F07F5142
:10167800D7EC4CF00009D8B444EF0BF046EF0BF070
:101688005FEF0BF000018051030D010EF326000EF1
:10169800F422990EF324F66EED0EF420F76E09008D
:1016A8006F00D4FF6AF00A006F00D4FF6BF07CC0B3
:1016B8006CF033EC4DF00001802B06EF0BF00101CC
:1016C800705100017B19D8A46CEF0BF06FEF0BF091
:1016D800010E70EF0BF0000E126E7F51D7EC4CF03C
:1016E8000009D8B47AEF0BF07CEF0BF08AEF0BF01F
:1016F8009F0E3B6EFF0E3C6E00017B5149EC45F09E
:1017080014C03DF015C03EF051EC4DF07BC070F1B7
:101718000101755100017719D8A495EF0BF098EFE6
:101728000BF0010E99EF0BF0000E126E7F51D7EC03
:101738004CF00009D8B4A3EF0BF0A5EF0BF0B3EF12
:101748000BF0F20E3B6EFE0E3C6E000177517FEC03
:101758004FF012C03DF013C03EF051EC4DF077C091
:1017680075F10101745100017819D8A4BEEF0BF08E
:10177800C1EF0BF0010EC2EF0BF0000E126E7F519D
:10178800D7EC4CF00009D8B4CCEF0BF0CEEF0BF04F
:10179800DCEF0BF0ED0E3B6EFE0E3C6E0001785157
:1017A8007EEC45F012C03DF013C03EF051EC4DF018
:1017B80078C074F10101735100017919D8A4E7EFD9
:1017C8000BF0EAEF0BF0010EEBEF0BF0000E126ED0
:1017D8007F51D7EC4CF00009D8B4F5EF0BF0F7EFD8
:1017E8000BF000EF0CF09B0E00016A6FFF0E6B6FA1
:1017F80079C06CF033EC4DF079C073F10001806B67
:10180800040E80650AEF0CF00CEF0CF00EEF0CF0F4
:101818007CEF0CF080C06FF0010E706F6F2B17EF2C
:101828000CF0D89070376F2F15EF0CF00001705145
:10183800766F755176150009D8A425EF0CF028EFBE
:101848000CF0010E29EF0CF0000E7D6F01017251B2
:10185800000176150009D8A434EF0CF037EF0CF02E
:10186800010E38EF0CF0000E7D19D8A43EEF0CF0F5
:1018780041EF0CF0010E42EF0CF0000E726F736B2B
:101888007F51D8B44AEF0CF04CEF0CF056EF0CF047
:101898007D51D8B452EF0CF054EF0CF056EF0CF029
:1018A800010E736F72C012F07351D8A45EEF0CF082
:1018B80061EF0CF0010E62EF0CF0000ED7EC4CF06B
:1018C8000009D8B46AEF0CF06CEF0CF078EF0CF06C
:1018D800000180515AEC4CF012C06AF013C06BF052
:1018E8007DC06CF033EC4DF00001802B04EF0CF060
:1018F80075C072F10101715100017A19D8A487EFFE
:101908000CF08AEF0CF0010E8BEF0CF0000E126E4B
:101918007F51D7EC4CF00009D8B495EF0CF097EF55
:101928000CF0A5EF0CF0970E3B6EFF0E3C6E00011D
:101938007A511AEC39F012C03DF013C03EF051EC68
:101948004DF07AC071F10001746B7F51D8B4AFEFDC
:101958000CF0B1EF0CF0BBEF0CF07E51D8B4B7EF40
:101968000CF0B9EF0CF0BBEF0CF0010E746F010135
:101978006F5100017E19D8A4C4EF0CF0C7EF0CF02A
:10198800010EC8EF0CF0000E126E7451D8A4CFEF00
:101998000CF0D2EF0CF0010ED3EF0CF0000ED7ECE8
:1019A8004CF00009D8B4DBEF0CF0DDEF0CF0E5EFFC
:1019B8000CF0410E3B6EFD0E3C6E7EC03DF0A9EC76
:1019C8004DF07EC06FF1000E126E00017F51D7EC12
:1019D8004CF00009D8B4F3EF0CF0F5EF0CF003EF7E
:1019E8000DF0A30E3B6EFF0E3C6E7FEC54F018EC2E
:1019F80034F012C03DF013C03EF051EC4DF012002F
:101A08003B50800B0001686F3B503B246F6F3AAE30
:101A180010EF0DF012EF0DF013EF0DF06F816F5115
:101A2800D8B419EF0DF01BEF0DF02FEF0DF06F2963
:101A3800D8A421EF0DF023EF0DF02BEF0DF0000EE1
:101A4800386E000E396E000E3A6E000E3B6E3A8EFE
:101A58003B6A37EF0DF0000E386E000E396E000E3F
:101A68003A6E000E3B6E3F50800B681B3F503F2480
:101A7800706F3EAE42EF0DF044EF0DF045EF0DF004
:101A880070817051D8B44BEF0DF04DEF0DF061EF50
:101A98000DF07029D8A453EF0DF055EF0DF05DEF60
:101AA8000DF0000E3C6E000E3D6E000E3E6E000EF8
:101AB8003F6E3E8E3F6A69EF0DF0000E3C6E000EE1
:101AC8003D6E000E3E6E000E3F6E3C503D103E10C7
:101AD8003F10D8A472EF0DF074EF0DF08CEF0DF0FD
:101AE800000E386E000E396E000E3A6E000E3B6E18
:101AF800800E3A127F0E3B1268513B1238C038F004
:101B080039C039F03AC03AF03BC03BF0CBEF0EF0A9
:101B18006F51D8A492EF0DF094EF0DF09EEF0DF0F9
:101B2800000E386E000E396E000E3A6E000E3B6ED7
:101B3800CBEF0EF070516FC060F0616B605F000E0C
:101B4800615B7F0E6025696F000E61216A6F38C086
:101B580064F039C065F03AC066F03BC067F0000E2B
:101B6800386E000E396E000E3A6E000E3B6E000E97
:101B78006B6F000E6C6F000E6D6F000E6E6F706BEA
:101B8800FEEF0DF07051D8B4CCEF0DF0CEEF0DF0A4
:101B9800E5EF0DF0D8906437653766376737D8902A
:101BA800383639363A363B366EAFDDEF0DF0DFEFBB
:101BB8000DF0E0EF0DF03880D8906B376C376D374B
:101BC8006E373C50645D3D5065593E5066593F50F4
:101BD8006759D8A0F2EF0DF0F4EF0DF0FDEF0DF01E
:101BE8006E8D3C50645F3D50655B3E50665B3F5078
:101BF800675B702B190E706504EF0EF006EF0EF0A0
:101C0800C6EF0DF06451651166116711D8B40FEF76
:101C18000EF011EF0EF029EF0EF06B8129EF0EF0A8
:101C2800D890383639363A363B366EAF1EEF0EF05E
:101C380020EF0EF021EF0EF03880D8906B376C371C
:101C48006D376E376907D8A06A073AAE2EEF0EF0E7
:101C580030EF0EF014EF0EF0706B6EAF36EF0EF043
:101C680038EF0EF05CEF0EF0FF0E6B15606FFF0E95
:101C78006C15616FFF0E6D15626F7F0E6E15636FC9
:101C88006051611162116311D8B44DEF0EF04FEF3E
:101C98000EF053EF0EF0010E706F5CEF0EF038A0EF
:101CA80058EF0EF05AEF0EF05CEF0EF04FEF0EF01B
:101CB8007051D8B462EF0EF064EF0EF088EF0EF0BA
:101CC800010E3826000E39223A223B223BA06FEF44
:101CD8000EF071EF0EF088EF0EF038C060F039C0EA
:101CE80061F03AC062F03BC063F06335633362333E
:101CF8006133603360C038F061C039F062C03AF0D7
:101D080063C03BF0694B6A2B6ABF93EF0EF06A51D0
:101D180008E16929D8A093EF0EF095EF0EF0A0EF37
:101D28000EF0000E6A6F6969000E386E000E396E8B
:101D3800000E3A6E000E3B6E6ABFADEF0EF06A51B0
:101D480006E16905D8B0ABEF0EF0ADEF0EF0B9EFD4
:101D58000EF06A6B000E696F000E386E000E396E59
:101D6800000E3A6E000E3B6E686B69C06FF06FA193
:101D7800C0EF0EF0C2EF0EF0C5EF0EF03A8EC6EFD0
:101D88000EF03A9ED8906F313B6E80EF0DF0120046
:101D9800010E7AEC4AF0710E266E1FEC1DF0000958
:101DA800D8A4D9EF0EF0DBEF0EF0E6EF0EF00D0E33
:101DB8001F6EFA0E206EF6EC4CF0000E7AEC4AF02C
:101DC8007FEF10F02E0E1F6EFE0E206EF6EC4CF01C
:101DD80000017F51D8A4F3EF0EF0F5EF0EF0FBEF02
:101DE8000EF0C20E606FF90E616FFFEF0EF0700E0D
:101DF800606FFC0E616F60C01FF061C020F0F6ECF0
:101E08004CF0BE0E1F6EFD0E206EF6EC4CF000017D
:101E18008051D8A412EF0FF014EF0FF01AEF0FF063
:101E2800AF0E626FFF0E636F1EEF0FF0E70E626F6B
:101E3800FF0E636F62C01FF063C020F0F6EC4CF039
:101E48003A0E1F6EFE0E206EF6EC4CF0000181512A
:101E5800D8A431EF0FF033EF0FF039EF0FF0AF0EDA
:101E6800646FFF0E656F3DEF0FF0E70E646FFF0EB6
:101E7800656F64C01FF065C020F0F6EC4CF0030EEF
:101E88001F6EFD0E206EF6EC4CF0000182511AEC2C
:101E98004EF0CD0E1F6EFC0E206EF6EC4CF08AEC68
:101EA80054F01AEC39F012C01FF013C020F0F6EC11
:101EB8004CF0FA0E1F6EFC0E206EF6EC4CF0F1ECB6
:101EC80053F012C01FF013C020F010EC3AF0200EAF
:101ED8001F6EFC0E206EF6EC4CF00001706B70511A
:101EE800D8B479EF0FF07BEF0FF07EEF0FF0200EF4
:101EF800F0EC52F000017051710FD96EDA6ADF50C0
:101F08001AEC4EF00001702B0D0E70658EEF0FF07D
:101F180090EF0FF073EF0FF07F51D8A496EF0FF00A
:101F280098EF0FF09EEF0FF0810E1F6EF80E206EE7
:101F3800F6EC4CF0A70E1F6EFA0E206EF6EC4CF085
:101F4800000183B1AAEF0FF0ACEF0FF0B1EF0FF083
:101F5800676B300E666FB4EF0FF0676B310E666F0C
:101F68006651F0EC52F0E80E1F6EFD0E206EF6EC96
:101F78004CF0000183B3C3EF0FF0C5EF0FF0CAEFC9
:101F88000FF0696B300E686FCDEF0FF0696B310E93
:101F9800686F6851F0EC52F0700E1F6EFE0E206EE6
:101FA800F6EC4CF0000183B9DCEF0FF0DEEF0FF038
:101FB800E3EF0FF06B6B300E6A6FE6EF0FF06B6BB1
:101FC800310E6A6F6A51F0EC52F07C0E1F6EFE0EF5
:101FD800206EF6EC4CF0000183BBF5EF0FF0F7EF45
:101FE8000FF0FCEF0FF06D6B300E6C6FFFEF0FF022
:101FF8006D6B310E6C6F6C51F0EC52F00001706B30
:102008007051D8A40AEF10F00CEF10F014EF10F094
:10201800160E1F6EFC0E206EF6EC4CF028EF10F03A
:10202800030E7019D8A41BEF10F01DEF10F025EF68
:1020380010F00C0E1F6EFC0E206EF6EC4CF028EF24
:1020480010F0200EF0EC52F0000170513AEC4CF018
:1020580012C01FF013C020F0F6EC4CF03D0EF0EC6F
:1020680052F000017051020D6F00CCFF32F0130ED8
:1020780032263250710FD96EDA6A6F0078FF1FF07E
:102088006F0074FF20F099EC31F00001702B050E01
:10209800706551EF10F053EF10F004EF10F0690E77
:1020A8001F6EFB0E206EF6EC4CF0000190511AECFE
:1020B8004EF0F10E1F6EFC0E206EF6EC4CF0000197
:1020C80090B169EF10F06BEF10F070EF10F06F6BDC
:1020D800300E6E6F73EF10F06F6B310E6E6F6E51C6
:1020E800F0EC52F0940E1F6EFA0E206EF6EC4CF0E7
:1020F800000E7AEC4AF01200050E4818D8A487EFB3
:1021080010F089EF10F0A7EF10F001016C51D8B46E
:1021180090EF10F092EF10F0E5EF11F0136A000E57
:10212800126EAF0E146E66EC3DF00009D8B49FEF46
:1021380010F0A1EF10F0E5EF11F001016C6B5B4BB3
:102148005C2BE5EF11F0040E4818D8A4AEEF10F0A0
:10215800B0EF10F0B2EF10F0E5EF11F0030E4818F1
:10216800D8A4B9EF10F0BBEF10F069EF11F0DEEC76
:102178004FF00009D8B4C3EF10F0C5EF10F0C7EF67
:1021880010F0E5EF11F00001FA29D8B4CEEF10F005
:10219800D0EF10F0FDEF10F0FAC02CF02D6A4CECE7
:1021A80054F00009D8A4DBEF10F0DDEF10F0F4EFE5
:1021B80010F0920E0001FA25D96EDA6A020EDA22C0
:1021C8002CC012F02DC013F022EC50F0216EDE501E
:1021D8002118D8B4F2EF10F0F4EF10F0F8EF10F087
:1021E800040E486EE5EF11F00001FA69FDEF10F0FA
:1021F800472A0E0E476003EF11F005EF11F01AEFB2
:1022080011F0920E4724D96EDA6A020EDA2247C01C
:1022180012F0136A22EC50F0216EDE502118D8B467
:1022280018EF11F01AEF11F0FCEF10F00D0E4764E3
:1022380020EF11F022EF11F04CEF11F02E6A950EFD
:102248002E24D96EDA6A020EDA22A00E2E24E16E4E
:10225800E26A020EE2226F007FFFE7FF2E2A090ED4
:102268002E6439EF11F03BEF11F023EF11F0A2ECDF
:1022780047F012C027F113C028F114C029F115C086
:102288002AF1010E01016D6F010E486EE5EF11F0A4
:1022980047C012F0136A920E4724D96EDA6A020E0A
:1022A800DA22DF50146E66EC3DF00009D8B45FEF17
:1022B80011F061EF11F0E5EF11F047C0FAF0472A8D
:1022C80001015B4B5C2BE5EF11F0220E156E166ACF
:1022D80073EC2EF0220E126EA00E136E020E146E08
:1022E80051EC4BF00009D8B47CEF11F07EEF11F0FF
:1022F80095EF11F0020E4818D8A485EF11F087EF7A
:1023080011F0E5EF11F001016D51D8A48EEF11F035
:1023180091EF11F0010E92EF11F0000E486EE5EF0B
:1023280011F0020E4818D8B49CEF11F09EEF11F08E
:10233800ACEF11F0020E486EA2EC47F012C02BF180
:1023480013C02CF114C02DF115C02EF1E5EF11F0DA
:102358002BC11CF02CC11DF02DC11EF02EC11FF089
:1023680082EC52F01F501E100BE1100E1C5C270E61
:102378001D58D8A0C2EF11F0C4EF11F0E5EF11F02D
:1023880027C11CF028C11DF029C11EF02AC11FF069
:1023980082EC52F01F501E100BE1600E1C5CEA0E1E
:1023A8001D58D8A0DAEF11F0DCEF11F0E5EF11F0CD
:1023B800220E1D6EB5EC49F0476A0001FA69030E5A
:1023C800486E12000F6E200E0F64EDEF11F0EFEF64
:1023D80011F013EF12F0290E0F60F5EF11F0F7EF7F
:1023E80011F013EF12F00F50DF0F0C6ED8900C3075
:1023F800086E096AD89008360936090E0824D96E7D
:10240800020E0920DA6E6F0078FF01F06F0074FF8A
:1024180002F00CC003F0AFEC4FF042EF13F02B0EBC
:102428000F6419EF12F01BEF12F03FEF12F03C0EA1
:102438000F6021EF12F023EF12F03FEF12F00F5070
:10244800D40F0D6ED8900D30086E096AD8900836F2
:102458000936140E0824D96E020E0920DA6E6F00B0
:1024680078FF01F06F0074FF02F00DC003F0AFECCD
:102478004FF042EF13F0100E0F6445EF12F047EFE4
:1024880012F05EEF12F0150E0F604DEF12F04FEFE5
:1024980012F05EEF12F00F50086E096AD8900836F5
:1024A80009360E0E0824D96E020E0920DA6EDF50A6
:1024B80042EF13F0140E0F6464EF12F066EF12F09F
:1024C8008EEF12F0190E0F606CEF12F06EEF12F033
:1024D8008EEF12F00F50EB0F0E6ED8900E30086E84
:1024E800096AD89008360936380E0824D96E020EC3
:1024F8000920DA6E6F0078FF0AF06F0074FF0BF0A6
:102508000AC001F00BC002F00EC003F0AFEC4FF0B0
:1025180042EF13F0420E0F6494EF12F096EF12F0B0
:10252800F3EF12F04B0E0F609CEF12F09EEF12F0DB
:10253800F3EF12F0E40E0F24D96EDA6A010EDA22F4
:10254800DF5042EF13F00201005142EF13F0020195
:10255800015142EF13F00201035142EF13F002015F
:10256800025142EF13F00201055142EF13F002014C
:10257800045142EF13F00201075142EF13F0020138
:10258800065142EF13F0060E42EF13F0435042EFAC
:1025980013F0465042EF13F002012F5142EF13F0AF
:1025A8000201085142EF13F00201115142EF13F0FA
:1025B8000201125142EF13F00201135142EF13F0DE
:1025C8000201245142EF13F00201255142EF13F0AA
:1025D8000201265142EF13F0000E42EF13F00F50A4
:1025E800000AD8B4A7EF12F0010AD8B4ABEF12F082
:1025F800030AD8B4AFEF12F0010AD8B4B3EF12F05F
:10260800070AD8B4B7EF12F0010AD8B4BBEF12F03A
:10261800030AD8B4BFEF12F0010AD8B4C3EF12F01E
:102628000F0AD8B4C7EF12F0010AD8B4CAEF12F0F3
:10263800190AD8B4CDEF12F0300AD8B4D4EF12F09A
:10264800090AD8B4D8EF12F0030AD8B4DCEF12F0B4
:10265800010AD8B4E0EF12F06B0AD8B4E4EF12F034
:10266800010AD8B4E8EF12F0030AD8B4ECEF12F07C
:10267800220AD8B4D0EF12F0F0EF12F01200CEC058
:1026880012F0CFC013F0146A156A000E45EC1CF066
:1026980012C0E6F013C0E7F014C0E8F015C0E9F086
:1026A800000E246E000E256E000E266E000E276E9C
:1026B800E6C028F0E7C029F0E8C02AF0E9C02BF00E
:1026C80082EC2AF0D8A06BEF13F06DEF13F078EFDF
:1026D80013F0330E0001CE6F930ECF6F880ED06FBC
:1026E800C30ED16F8BEF14F0E6C024F0E7C025F0DD
:1026F800E8C026F0E9C027F0000E286EF00E296E1B
:102708007F0E2A6E450E2B6E82EC2AF0D8A08FEF32
:1027180013F091EF13F09CEF13F0330E0001CE6F1E
:10272800930ECF6F880ED06FC30ED16F8BEF14F05E
:10273800E6C034F0E7C035F0E8C036F0E9C037F05D
:10274800000E306EF00E316E7F0E326E450E336E17
:102758002EEC4BF030C03CF031C03DF032C03EF0C2
:1027680033C03FF0E6C038F0E7C039F0E8C03AF0CF
:10277800E9C03BF004EC0DF038C071F039C072F0DC
:102788003AC073F03BC074F0000E0001756FE00EA4
:10279800766FF60E776F460E786FC1EC08F071C051
:1027A800E2F072C0E3F073C0E4F074C0E5F0000E2C
:1027B800246E000E256E000E266E000E276EE2C0F7
:1027C80028F0E3C029F0E4C02AF0E5C02BF082EC41
:1027D8002AF0D8A0F2EF13F0F4EF13F0FFEF13F0A4
:1027E800330E0001CE6F930ECF6F880ED06FC30EDD
:1027F800D16F8BEF14F0000E3C6E400E3D6E1C0E38
:102808003E6E460E3F6EE2C038F0E3C039F0E4C0D9
:102818003AF0E5C03BF004EC0DF038C0DAF039C00E
:10282800DBF03AC0DCF03BC0DDF0DAC08AF0DBC098
:102838008BF0DCC08CF0DDC08DF053EC03F08AC067
:10284800DEF08BC0DFF08CC0E0F08DC0E1F0000E50
:102858003C6EB00E3D6E560E3E6E450E3F6EDEC0AF
:1028680038F0DFC039F0E0C03AF0E1C03BF004ECEA
:102878000DF038C020F039C021F03AC022F03BC03A
:1028880023F00F0E246ECF0E256E5B0E266E3B0EC8
:10289800276E66EC06F020C0D6F021C0D7F022C023
:1028A800D8F023C0D9F0000E386E000E396E800EB5
:1028B8003A6E3F0E3B6ED6C03CF0D7C03DF0D8C054
:1028C8003EF0D9C03FF004EC0DF038C0D2F039C06A
:1028D800D3F03AC0D4F03BC0D5F0D2C020F0D3C07A
:1028E80021F0D4C022F0D5C023F0330E246E930E0D
:1028F800256E880E266EC30E276E66EC06F020C085
:10290800CEF021C0CFF022C0D0F023C0D1F0120009
:102918005DEC1BF0366E3650D8B495EF14F097EF97
:1029280014F0A4EF14F0010E01017E6FA2EC47F041
:1029380012C043F113C044F114C045F115C046F16B
:10294800346A01017E51D8B4ACEF14F0AEEF14F044
:10295800C8EF14F043C11CF044C11DF045C11EF07E
:1029680046C11FF082EC52F01F501E1009E1F40E10
:102978001C5C010E1D58D8B0C4EF14F0C6EF14F05B
:10298800C8EF14F0010E346E34B002D0BB9601D0FB
:10299800BB86010E356E01017E51D8B4D6EF14F016
:1029A800D8EF14F0F1EF14F043C11CF044C11DF04E
:1029B80045C11EF046C11FF082EC52F01F501E1098
:1029C80009E1300E1C5C750E1D58D8B0EEEF14F0FE
:1029D800F0EF14F0F1EF14F0356A35B002D0BB9087
:1029E80001D0BB80B3EF15F03650D8B4FEEF14F029
:1029F80000EF15F03EEF15F0A2EC47F012C0F4F02E
:102A080013C0F5F014C0F6F015C0F7F0010E01017F
:102A1800816F7F51D8A413EF15F015EF15F021EF52
:102A280015F0010E7F6FF4C047F1F5C048F1F6C00C
:102A380049F1F7C04AF1CDEF15F047C11CF048C184
:102A48001DF049C11EF04AC11FF082EC52F01F5020
:102A58001E100BE1980E1C5C3A0E1D58D8A037EFDB
:102A680015F039EF15F0CDEF15F0010E0101806F6B
:102A7800CDEF15F0F4C01CF0F5C01DF0F6C01EF047
:102A8800F7C01FF082EC52F01CC030F01DC031F0CE
:102A98001EC032F01FC033F01AEC4CF02650305CE8
:102AA800275031582850325829503358D8A05FEF52
:102AB80015F061EF15F0CDEF15F0010E0101826FF1
:102AC800A2EC47F012C0F4F013C0F5F014C0F6F011
:102AD80015C0F7F00101816BCDEF15F0F4C01CF0C3
:102AE800F5C01DF0F6C01EF0F7C01FF082EC52F0E2
:102AF8001F501E100BE1300E1C5C750E1D58D8A01F
:102B080088EF15F08AEF15F0CDEF15F0FDEC52F0D7
:102B18000009D8B492EF15F094EF15F098EF15F07E
:102B280044EC52F0CDEF15F0020E0101826FA2ECD9
:102B380047F012C0F4F013C0F5F014C0F6F015C059
:102B4800F7F0CDEF15F0FDEC52F00009D8B4AFEF77
:102B580015F0B1EF15F0CDEF15F094EF15F0010178
:102B68008251306E316A3150000AD8B4BEEF15F088
:102B7800F8EF14F03050000AD8B4F8EF14F0010A56
:102B8800D8B472EF15F0030AD8B4A7EF15F0F8EF30
:102B980014F01200276E080E296E100E2A6E2B6A8A
:102BA8001F6A290E196E030E1A6E275082EC3EF02A
:102BB8000009D8B4E2EF15F0E4EF15F0E6EF15F0F0
:102BC800010E1F6E1F50D8A4ECEF15F0EFEF15F0B3
:102BD800010EF0EF15F0000E286E050E2A6E1DC0CE
:102BE8002BF0206A290E196E030E1A6E275082ECFC
:102BF8003EF00009D8B403EF16F005EF16F00FEF1A
:102C080016F02850D8B40BEF16F00DEF16F00FEFB2
:102C180016F0010E206E2050D8A415EF16F018EF0C
:102C280016F0010E19EF16F0000E286E070E2A6E28
:102C38001EC02BF0216A290E196E030E1A6E27503A
:102C480082EC3EF00009D8B42CEF16F02EEF16F007
:102C580038EF16F02850D8B434EF16F036EF16F0E7
:102C680038EF16F0010E216E2150D8A43EEF16F071
:102C780041EF16F0010E42EF16F0000E286E120E0C
:102C88002A6E1D50FF0A2B6E226A290E196E030E3A
:102C98001A6E275082EC3EF00009D8B456EF16F0B1
:102CA80058EF16F062EF16F02850D8B45EEF16F021
:102CB80060EF16F062EF16F0010E226E2250D8A4D3
:102CC80068EF16F06BEF16F0010E6CEF16F0000EC1
:102CD800286E100E2A6E010E2B6E236A290E196EAD
:102CE800030E1A6E275082EC3EF00009D8B47FEF2D
:102CF80016F081EF16F08BEF16F02850D8B487EF56
:102D080016F089EF16F08BEF16F0010E236E2350A4
:102D1800D8A491EF16F094EF16F0010E95EF16F087
:102D2800000E286E040E2A6E200E2B6E246A290EC1
:102D3800196E030E1A6E275082EC3EF00009D8B4C3
:102D4800A8EF16F0AAEF16F0B4EF16F02850D8B492
:102D5800B0EF16F0B2EF16F0B4EF16F0010E246ED5
:102D68002450D8A4BAEF16F0BDEF16F0010EBEEF4E
:102D780016F0000E286E010E2A6E200E2B6E256AA4
:102D8800290E196E030E1A6E275082EC3EF00009C8
:102D9800D8B4D1EF16F0D3EF16F0DDEF16F02850C7
:102DA800D8B4D9EF16F0DBEF16F0DDEF16F0010E10
:102DB800256E2550D8A4E3EF16F0E6EF16F0010EC5
:102DC800E7EF16F0000E286E100E2A6E110E2B6E0D
:102DD800266A290E196E030E1A6E275082EC3EF0F1
:102DE8000009D8B4FAEF16F0FCEF16F006EF17F06A
:102DF8002850D8B402EF17F004EF17F006EF17F0D9
:102E0800010E266E12000101B36FD0EC3CF012C027
:102E1800AFF113C0B0F114C0B1F115C0B2F1B0EC0C
:102E280053F017C0ABF118C0ACF100EC52F0EAC097
:102E3800A3F1EBC0A4F1ECC0A5F1EDC0A6F1EEEC56
:102E480051F0EAC0A7F1EBC0A8F1ECC0A9F1EDC0C0
:102E5800AAF1010E7AEC4AF0330E216EFF0E226EB3
:102E6800AFC123F09EEC4EF0760E216EFE0E226E60
:102E7800B0C123F09EEC4EF0750E1F6EFB0E206E57
:102E8800F6EC4CF0ABC11FF0ACC120F010EC3AF0FE
:102E9800B00E1F6EFB0E206EF6EC4CF0A3C194F042
:102EA800A4C195F0A5C196F0A6C197F018EC23F03F
:102EB800F40E1F6EFF0E206EF6EC4CF0990E1F6E8E
:102EC800FD0E206EF6EC4CF0A7C194F0A8C195F069
:102ED800A9C196F0AAC197F018EC23F0F40E1F6E62
:102EE800FF0E206EF6EC4CF00101B35164EC50F08B
:102EF800A00E1F6EFE0E206EF6EC4CF076EC54F031
:102F08007FEC4FF012C01FF013C020F0F6EC4CF02D
:102F1800F60E1F6EFD0E206EF6EC4CF07CEC54F0B5
:102F28007EEC45F012C01FF013C020F0F6EC4CF018
:102F3800880E216EFE0E226E79EC54F0236E9EEC04
:102F48004EF0820E1F6EFE0E206EF6EC4CF08AECF0
:102F580054F01AEC39F012C01FF013C020F0F6EC50
:102F68004CF09A0E1F6EFE0E206EF6EC4CF07FECC5
:102F780054F018EC34F012C01FF013C020F0F6EC37
:102F88004CF08E0E1F6EFE0E206EF6EC4CF057ECD9
:102F980048F00009D8A4D3EF17F0D5EF17F0DCEF0D
:102FA80017F0C30E0101AD6FFF0EAE6FE1EF17F022
:102FB800C70E0101AD6FFF0EAE6FADC11FF0AEC100
:102FC80020F0F6EC4CF0940E1F6EFE0E206EF6EC20
:102FD8004CF08CEC3FF049EC45F014C01FF015C0E4
:102FE80020F0F6EC4CF00101B35164EC50F0F7EC32
:102FF8003DF00101B35164EC50F0B7EC4BF05E0EBC
:103008002B6EFE0E2C6E000E2D6E0101B35129ECB5
:1030180026F0640E2B6EFE0E2C6E010E2D6E010135
:10302800B35129EC26F06A0E2B6EFE0E2C6E020EA2
:103038002D6E0101B35129EC26F0580E2B6EFE0EB1
:103048002C6E030E2D6E0101B35129EC26F0940E5F
:103058001F6EFA0E206EF6EC4CF0000E7AEC4AF079
:1030680012000001666F600083F1D9FF600087F1EC
:10307800DAFFDF6A000120EE01F06051D9266151C4
:10308800DA22DF6A20EE02F06051D9266151DA2295
:10309800DF6A20EE03F06051D9266151DA22DF6A37
:1030A80020EE04F06051D9266151DA22DF6A20EE61
:1030B80005F06051D9266151DA22DE6ADD6A20EE18
:1030C80007F06051D9266151DA22DE6ADD6A030E03
:1030D800666571EF18F073EF18F075EF18F05EEF92
:1030E80019F06651060D310EF324686FEE0EF420C8
:1030F800696F010E6825626F000E6921636F6000B9
:103108008BF1F6FF60008FF1F7FF0800F55000091A
:10311800D8B491EF18F093EF18F0B2EF18F020EE52
:1031280001F06051D9266151DA22050E7DEC2DF0AF
:10313800DF6E000120EE02F06051D9266151DA22DB
:10314800060E7DEC2DF0DF6E600083F1D9FF600084
:1031580087F1DAFF010EDF6E2BEF19F0670E1F6E95
:103168006000A3F1F6FF6000A7F1F7FF0800F55033
:1031780012EC52F00009D8B4C4EF18F0C6EF18F0FA
:103188002BEF19F0000120EE01F06051D9266151B2
:10319800DA22020E6825626F000E6921636F6000F3
:1031A8008BF1F6FF60008FF1F7FF08006F00D4FF86
:1031B80064F0010E656F642BE4EF18F0D890653762
:1031C800642FE2EF18F00001655167150009D8A4D3
:1031D800F0EF18F0F3EF18F0010EF4EF18F0000E0E
:1031E800DF6E20EE02F06051D9266151DA22030E1B
:1031F8006825626F000E6921636F60008BF1F6FF2E
:1032080060008FF1F7FF08006F00D4FF64F0010E33
:10321800656F642B12EF19F0D8906537642F10EFA3
:1032280019F00001655167150009D8A41EEF19F0BF
:1032380021EF19F0010E22EF19F0000EDF6E600089
:1032480083F1D9FF600087F1DAFF010EDF6E68C0F5
:1032580034F069C035F0000E366E050E00016025A9
:10326800376E000E6121386EBFEC26F00001626FE8
:1032780020EE03F06051D9266151DA2260008BF10B
:10328800DFFF68C034F069C035F0010E366E070EF6
:103298006025376E000E6121386EBFEC26F0000104
:1032A800626F20EE04F06051D9266151DA22600085
:1032B8008BF1DFFF120000EC52F0EAC0A5F1EBC081
:1032C800A6F1ECC0A7F1EDC0A8F1AAEF19F0A5C1CD
:1032D80024F0A6C125F0A7C126F0A8C127F079ECF3
:1032E80050F020C028F021C029F022C02AF023C0C5
:1032F8002BF082EC2AF0D8A084EF19F086EF19F0B1
:10330800C0EF19F0010E0001FE6FC0EF19F004ECD8
:103318004FF020C024F021C025F022C026F023C0A1
:1033280027F0A5C128F0A6C129F0A7C12AF0A8C195
:103338002BF082EC2AF0D8A0A4EF19F0A6EF19F030
:10334800C0EF19F00001FE6BC0EF19F00001FE514B
:10335800EE6FEF6BEF51000AD8B4B5EF19F08BEFB1
:1033680019F0EE51000AD8B46BEF19F0010AD8B47D
:103378008BEF19F08BEF19F00001FE05D8A4C7EF09
:1033880019F0C9EF19F01BEF1AF00101A36B67ECF4
:1033980054F00009D8B4D3EF19F0D5EF19F0E2EFE3
:1033A80019F049EC54F00009D8B4DDEF19F0DFEF5B
:1033B80019F0E2EF19F0010E0101A36F0101A35109
:1033C800D8A4E9EF19F0ECEF19F0010EEDEF19F0C0
:1033D800000E276E030E71EC32F00101A46B64EC51
:1033E80054F00009D8B4FBEF19F0FDEF19F00AEF1B
:1033F8001AF049EC54F00009D8B405EF1AF007EFB9
:103408001AF00AEF1AF0010E0101A46F0101A4518C
:10341800D8A411EF1AF014EF1AF0010E15EF1AF0F4
:10342800000E276E040E71EC32F025EF1AF0000E34
:10343800276E030E71EC32F0000E276E040E71EC4D
:1034480032F00001FD51D8B42CEF1AF02EEF1AF02B
:103458004DEF1AF0A5C124F0A6C125F0A7C126F0AA
:10346800A8C127F0EBEC4EF020C028F021C029F0CD
:1034780022C02AF023C02BF082EC2AF0D8A047EF14
:103488001AF049EF1AF06BEF1AF00001FD6B6BEFC1
:103498001AF0D2EC4EF020C024F021C025F022C052
:1034A80026F023C027F0A5C128F0A6C129F0A7C19E
:1034B8002AF0A8C12BF082EC2AF0D8A066EF1AF007
:1034C80068EF1AF06BEF1AF0010E0001FD6FFDC0F6
:1034D80027F0060E71EC32F01200010E06EC32F005
:1034E8001DC039F01EC03AF0020E06EC32F01DC0C5
:1034F8003BF01EC03CF039503A10D8A486EF1AF0C1
:1035080088EF1AF08EEF1AF0040E356E000E346E46
:1035180092EF1AF039C034F03AC035F03350D96E12
:10352800DA6A040ED9266000D3F0DEFF6000D7F017
:10353800DDFF3B503C10D8A4A4EF1AF0A6EF1AF018
:10354800ACEF1AF0080E376E000E366EB0EF1AF0B8
:103558003BC036F03CC037F03350D96EDA6A060EFD
:10356800D9266000DBF0DEFF6000DFF0DDFF386A9F
:1035780039503A10D8B4C3EF1AF0C5EF1AF0D0EFAB
:103588001AF03B503C10D8B4CCEF1AF0CEEF1AF03A
:10359800D0EF1AF0010E386E3350D96EDA6A0C0E7D
:1035A800D9263850D8A4DBEF1AF0DEEF1AF0010E56
:1035B800DFEF1AF0000EDF6E010E37EC42F03350E9
:1035C800D96EDA6A60005FF0DEFF600063F0DDFF4D
:1035D800020E37EC42F03350D96EDA6A020ED92661
:1035E80060005FF0DEFF600063F0DDFF3350D96EEE
:1035F800DA6A040ED9266F0078FF2BF06F0074FF8B
:103608002CF03350D96EDA6A6F0078FF2DF06F0016
:1036180074FF2EF0BFEC39F03350D96EDA6A080E19
:10362800D9266000AFF0DEFF6000B3F0DDFF335055
:10363800D96EDA6A060ED9266F0078FF2BF06F0074
:1036480074FF2CF03350D96EDA6A020ED9266F0057
:1036580078FF2DF06F0074FF2EF0BFEC39F0335077
:10366800D96EDA6A0A0ED9266000AFF0DEFF600074
:10367800B3F0DDFF3350D96EDA6A0D0ED926335018
:10368800E16EE26A080EE1266F0098FF1EF06F00F7
:1036980094FF1FF03350E16EE26A0A0EE1266F00D4
:1036A80098FF20F06F0094FF21F000EC2DF0DF6E02
:1036B8001200ACEC42F02F6EA2EC47F012C020F0E2
:1036C80013C021F014C022F015C023F02F50D8B435
:1036D80070EF1BF072EF1BF0B0EF1BF0276A7CEF66
:1036E8001BF0A10E126E010E136E50EC4EF0272A3D
:1036F8002F50275CD8A083EF1BF085EF1BF075EFE8
:103708001BF001017D51D8A48CEF1BF08EEF1BF04C
:1037180099EF1BF0010E7D6F20C03FF121C040F1F1
:1037280022C041F123C042F17C6B7C512F242D6EC5
:103738002E6A2E362E04D8B0A4EF1BF0A6EF1BF08D
:10374800ABEF1BF02DC025F0266AAEEF1BF0000E84
:10375800266E256825C07CF101017D51D8A4B7EFFC
:103768001BF0B9EF1BF0BCEF1BF0000E44EF1CF090
:10377800010E7C65C2EF1BF0C4EF1BF0CFEF1BF00E
:103788007D6B7C6B9F0E126E010E136E50EC4EF02B
:10379800010E44EF1CF03FC11CF040C11DF041C1B7
:1037A8001EF042C11FF082EC52F01F501E1009E1BA
:1037B800E80E1C5C030E1D58D8B0E5EF1BF0E7EFD0
:1037C8001BF0E9EF1BF0B9EF1BF001013B513F5D26
:1037D800296E3C5140592A6E3D5141592B6E3E513C
:1037E80042592C6E286A7B51D8B4FDEF1BF0FFEFCD
:1037F8001BF01DEF1CF02C502B100BE1D00E295C98
:10380800070E2A58D8A00BEF1CF00DEF1CF01DEF87
:103818001CF02C502B1009E1310E295C750E2A582A
:10382800D8B019EF1CF01BEF1CF01DEF1CF0010EB7
:10383800286E2850D8A423EF1CF026EF1CF0010EA8
:1038480027EF1CF0000E246E7D6B7C6B3FC13BF1B3
:1038580040C13CF141C13DF142C13EF1010E7B6FD7
:103868009D0E126E010E136E50EC4EF02450D8B41B
:1038780040EF1CF042EF1CF0B9EF1BF0C6EF1BF055
:1038880012001A6E1A50D8B44CEF1CF04EEF1CF010
:1038980070EF1CF015BE55EF1CF053EF1CF070EFE5
:1038A8001CF012C016F013C017F014C018F015C0A1
:1038B80019F0161E171E181E191E162A000E17229A
:1038C8001822192216C01CF017C01DF018C01EF0CF
:1038D80019C01FF078EF1CF012C01CF013C01DF0C7
:1038E80014C01EF015C01FF012501310141015103C
:1038F800D8A481EF1CF083EF1CF08DEF1CF0000EB4
:10390800126E000E136E000E146E000E156E1EEF72
:103918001DF0960E1B6E97EF1CF01B2AD8901F32D5
:103928001E321D321C32000E1C14166E000E1D14A1
:10393800176E000E1E14186EFE0E1F14196E165008
:10394800171018101910D8A4ACEF1CF0AEEF1CF02B
:1039580091EF1CF0BCEF1CF01B2A010E1C26000E78
:103968001D221E221F22D8901F321E321D321C32E9
:10397800000E1C14166E000E1D14176E000E1E1479
:10398800186EFF0E1F14196E165017101810191004
:10399800D8A4D1EF1CF0D3EF1CF0B0EF1CF0DBEF94
:1039A8001CF01B06D8901C361D361E361F361EBE50
:1039B800E0EF1CF0E2EF1CF0EAEF1CF0020E1B60D7
:1039C800E8EF1CF0EAEF1CF0D5EF1CF01BB0EFEFAE
:1039D8001CF0F1EF1CF0F2EF1CF01E9ED8901B3289
:1039E8001BC016F0176A186A196A16C019F0186A07
:1039F800176A166A16501C1217501D1218501E12FC
:103A080019501F121A50D8B40CEF1DF00EEF1DF00C
:103A180016EF1DF015BE15EF1DF013EF1DF016EF94
:103A28001DF01F8E1CC012F01DC013F01EC014F034
:103A38001FC015F01200DEEC4FF00009D8B427EFD4
:103A48001DF029EF1DF02CEF1DF0000EF2EF1DF018
:103A580026C01DF026500F0F1E6E2650100F1F6E29
:103A68006FEC28F0276E2650D96EDA6A0E0ED9262A
:103A780060009FF0DFFF2650D96EDA6A020ED92661
:103A88002650E16EE26A110EE1266F007FFFE7FF24
:103A98002650D96EDA6A0E0ED926DF50D8B457EF01
:103AA8001DF059EF1DF0C9EF1DF02650030F2A6EC7
:103AB8002650D96EDA6A120ED9262650E16EE26ACD
:103AC800030EE126E750330BDF6E2C6A2A502C24B4
:103AD800D96EDA6A010ED926DF50276E286A27BE0A
:103AE80028062C50020D2650F324D96EDA6A130EDC
:103AF800D92660009FF0DEFF6000A3F0DDFF2C2ACE
:103B0800030E2C648AEF1DF08CEF1DF06AEF1DF098
:103B18002C6A2C50020D2A50F324D96EDA6A060E4C
:103B2800D926DF50276E2C50020D2A50F324D96E67
:103B3800DA6A050ED926DF50296E2750286E2C50D8
:103B4800020D2650F324D96EDA6A1B0ED9266000BE
:103B5800A3F0DEFF6000A7F0DDFF2C2A010E2C6425
:103B6800B8EF1DF0BAEF1DF08DEF1DF02650D96E9D
:103B7800DA6A0C0ED9262650E16EE26A1F0EE1269B
:103B88006F007FFFE7FFF1EF1DF02650D96EDA6A6C
:103B9800120ED926330EDF6E2B6A2B5099EC4CF09F
:103BA8002B50020D2650F324D96EDA6A130ED9264B
:103BB80060004BF0DEFF60004FF0DDFF2B2A050EA2
:103BC8002B64E9EF1DF0EBEF1DF0D1EF1DF026504F
:103BD800D96EDA6A1F0ED926DF6A010E12007CEC54
:103BE80054F0216E2104D8A4FCEF1DF0FEEF1DF067
:103BF80009EF1EF001016605D8B405EF1EF007EFC6
:103C08001EF009EF1EF00EEC54F021C066F1000121
:103C1800F851D8B412EF1EF014EF1EF016EF1EF094
:103C2800C4EF1EF001016851D8A41DEF1EF01FEF6C
:103C38001EF035EF1EF06751D8B425EF1EF027EFC0
:103C48001EF0C4EF1EF0DEEC4FF00009D8A42FEFF1
:103C58001EF031EF1EF0C4EF1EF046EC53F0C4EF37
:103C68001EF0DEEC4FF00009D8B43DEF1EF03FEF38
:103C78001EF041EF1EF0C4EF1EF00101FC29D8B47C
:103C880048EF1EF04AEF1EF07DEF1EF0200EFC25D7
:103C98001F6E206A000E20224CEC54F00009D8A4B4
:103CA80058EF1EF05AEF1EF071EF1EF0830E01015F
:103CB800FC25D96EDA6A010EDA221FC012F020C084
:103CC80013F022EC50F01E6EDE501E18D8B46FEFC1
:103CD8001EF071EF1EF078EF1EF00101686B010E07
:103CE8000001F86FC4EF1EF00101FC697DEF1EF0C2
:103CF800422A0E0E426083EF1EF085EF1EF09DEF04
:103D08001EF0830E4224D96EDA6A010EDA22200EE2
:103D18004224126E136A000E132222EC50F01E6E1B
:103D2800DE501E18D8B49BEF1EF09DEF1EF07CEFFE
:103D38001EF00D0E4264A3EF1EF0A5EF1EF0A9EFD2
:103D48001EF00101686BC4EF1EF0200E4224126EB3
:103D5800136A000E1322830E4224D96EDA6A010E0A
:103D6800DA22DF50146E66EC3DF00009D8B4BFEFDC
:103D78001EF0C1EF1EF0C4EF1EF042C0FCF1422A53
:103D88001200196E59EF1FF015C012F016C013F08B
:103D9800F9EC4BF00009D8B4D4EF1EF0D6EF1EF0C2
:103DA800E6EF1EF015500101025D0351800A176EFF
:103DB8001650800A1758D8A0E4EF1EF0E6EF1EF060
:103DC8007EEF1FF0000E8DEF1FF015C012F016C029
:103DD80013F0F9EC4BF00009D8B4F5EF1EF0F7EF4B
:103DE8001EF0E6EF1EF001010051155C1650800A26
:103DF800176E0151800A1758D8A005EF1FF007EF7A
:103E08001FF07EEF1FF0E6EF1EF015C012F016C08F
:103E180013F0F9EC4BF00009D8B415EF1FF017EFC9
:103E28001FF0E6EF1EF001010651155C1650800ADE
:103E3800176E0751800A1758D8A025EF1FF027EFF3
:103E48001FF07EEF1FF0E6EF1EF015C012F016C04F
:103E580013F0F9EC4BF00009D8B435EF1FF037EF49
:103E68001FF0E6EF1EF015500101045D0551800AB0
:103E7800176E1650800A1758D8A045EF1FF047EF65
:103E88001FF07EEF1FF0E6EF1EF015C012F016C00F
:103E980013F0D8EC4BF00009D8A455EF1FF057EFFA
:103EA8001FF07EEF1FF0E6EF1EF01950176E186A2C
:103EB8001850000AD8B463EF1FF0E6EF1EF0175051
:103EC800000AD8B4C8EF1EF0010AD8B4E9EF1EF012
:103ED800030AD8B409EF1FF0010AD8B429EF1FF07C
:103EE800070AD8B449EF1FF0010AD8B449EF1FF008
:103EF800E6EF1EF01950020D000EF324D96E010EE4
:103F0800F420DA6E600057F0DEFF60005BF0DDFF42
:103F1800010E12001C6E1FEF20F01950D8A497EF65
:103F28001FF09BEF1FF01A6A1A2A9CEF1FF01A6AFB
:103F38001A461A46BA501A18FB0B1A18BA6E48EFE6
:103F480020F01950D8A4ABEF1FF0AFEF1FF01A6A9A
:103F58001A2AB0EF1FF01A6A1A461A461A46BA50B9
:103F68001A18F70B1A18BA6E48EF20F01950D8A48F
:103F7800C0EF1FF0C4EF1FF01A6A1A2AC5EF1FF02E
:103F88001A6A1A3ABA501A18EF0B1A18BA6E48EF8A
:103F980020F01950D8A4D3EF1FF0D7EF1FF01A6AFA
:103FA8001A2AD8EF1FF01A6A1A3A1A46BA501A187B
:103FB800DF0B1A18BA6E48EF20F01950D8A4E7EFB3
:103FC8001FF0EBEF1FF01A6A1A2AECEF1FF01A6ABB
:103FD8001A321A32BA501A187F0B1A18BA6E48EFEA
:103FE80020F01950D8A4FBEF1FF0FFEF1FF01A6A5A
:103FF8001A2A00EF20F01A6A1A3A1A46BB501A1801
:10400800DF0B1A18BB6E48EF20F01950D8A40FEF39
:1040180020F013EF20F01A6A1A2A14EF20F01A6A17
:104028001A3ABB501A18EF0B1A18BB6E48EF20F05B
:10403800000E4EEF20F01C501A6E1B6A1B50000A2F
:10404800D8B429EF20F01CEF20F01A50000AD8B499
:1040580091EF1FF0010AD8B4A5EF1FF0030AD8B4F6
:10406800BAEF1FF0010AD8B4CDEF1FF0070AD8B491
:10407800E1EF1FF0010AD8B4F5EF1FF0030AD8B436
:1040880009EF20F01CEF20F019C012F01C504AEC88
:104098003FF0010E12000001946F76EF20F094516A
:1040A80042EC35F009EF21F09451BDEC30F009EF06
:1040B80021F09451B1EC46F009EF21F094511BEC3A
:1040C80046F009EF21F094510EEC40F009EF21F091
:1040D8009451FCEC41F009EF21F0945173EC38F065
:1040E80009EF21F00001FB51916F926B9251000A88
:1040F800D8B481EF20F0A4EF20F09151000AD8B491
:10410800A4EF20F0010AD8B453EF20F0030AD8B482
:1041180058EF20F0010AD8B45DEF20F0070AD8B4B0
:1041280062EF20F0010AD8B467EF20F0030AD8B490
:104138006CEF20F0010AD8B471EF20F0A4EF20F062
:10414800010E936F945105EC2CF00009D8A4AFEF41
:1041580020F0B1EF20F007EF21F00001945142EC7C
:1041680035F00009D8A4BBEF20F0BDEF20F007EF31
:1041780021F000019451BDEC30F00009D8A4C7EF3C
:1041880020F0C9EF20F007EF21F000019451B1ECC5
:1041980046F00009D8A4D3EF20F0D5EF20F007EFC0
:1041A80021F0000194511BEC46F00009D8A4DFEF80
:1041B80020F0E1EF20F007EF21F0000194510EEC20
:1041C80040F00009D8A4EBEF20F0EDEF20F007EF66
:1041D80021F000019451FCEC41F00009D8A4F7EF5C
:1041E80020F0F9EF20F007EF21F00001945173EC73
:1041F80038F00009D8A403EF21F005EF21F007EF0C
:1042080021F00001936B000193511200640E336E8C
:1042180071EC1AF0010E7AEC4AF0AD0E1F6EFB0E2F
:10422800206EF6EC4CF0A8EC53F017C01FF018C045
:1042380020F010EC3AF0990E1F6EFD0E206EF6EC91
:104248004CF0A0EC53F017C01FF018C020F010EC91
:104258003AF0750E1F6EFB0E206EF6EC4CF0B0ECCB
:1042680053F017C01FF018C020F010EC3AF0940E6D
:104278001F6EFA0E206EF6EC4CF0810E1F6EFD0ECE
:10428800206EF6EC4CF064C01FF065C020F010EC16
:104298003AF0C30E1F6EFB0E206EF6EC4CF06CC0AD
:1042A8001FF06DC020F010EC3AF0890E1F6EFD0E65
:1042B800206EF6EC4CF066C01FF067C020F010ECE2
:1042C8003AF0C30E1F6EFB0E206EF6EC4CF06EC07B
:1042D8001FF06FC020F010EC3AF0DF0E1F6EFC0EDE
:1042E800206EF6EC4CF068C01FF069C020F010ECAE
:1042F8003AF02F0EF0EC52F06AC01FF06BC020F0BD
:1043080010EC3AF000017051D8A48DEF21F08FEF36
:1043180021F095EF21F0450E606FFB0E616F99EF6C
:1043280021F0510E606FFD0E616F60C01FF061C01B
:1043380020F0F6EC4CF000017151D8A4A6EF21F062
:10434800A8EF21F0AEEF21F0D20E626FFA0E636F84
:10435800B2EF21F0B60E626FFA0E636F62C01FF003
:1043680063C020F0F6EC4CF0000E7AEC4AF0120034
:1043780000016A6B000E696FA2EC47F012C060F092
:1043880013C061F014C062F015C063F0000E126E25
:10439800000E136E000E146E000E156EFF0E166ED4
:1043A8001F0E176E000E186E000E196E690E1A6E2B
:1043B8006DEC37F00001686F60C01CF061C01DF043
:1043C80062C01EF063C01FF082EC52F01CC064F0A3
:1043D8001DC065F01EC066F01FC067F0010E7AECC4
:1043E8004AF0FC0E1F6EFE0E206EF6EC4CF000013B
:1043F8006851D8A402EF22F004EF22F00FEF22F068
:10440800060E1F6EF90E206EF6EC4CF0000E7AECDC
:104418004AF06CEF22F0DA0E1F6EFD0E206EF6ECFD
:104428004CF000016A511AEC4EF0000169511AEC87
:104438004EF07A0E1F6EFC0E206EF6EC4CF0000E5D
:104448001AEC4EF0000E1AEC4EF0000E1AEC4EF07C
:10445800BF0E1F6EFF0E206EF6EC4CF0000E1AEC2D
:104468004EF01F0E1AEC4EF0FF0E1AEC4EF0270E0F
:104478001F6EFD0E206EF6EC4CF0100E1AEC4EF08E
:10448800210E1AEC4EF00C0E1F6EFD0E206EF6EC8F
:104498004CF0FF0E1AEC4EF0FF0E1AEC4EF0100E18
:1044A8001F6EFF0E206EF6EC4CF064C02BF065C05A
:1044B8002CF066C02DF067C02EF0DCEC32F0940EC4
:1044C8001F6EFA0E206EF6EC4CF0000E7AEC4AF0F5
:1044D8001200316A31501F0FD96EDA6A200E31246A
:1044E800126E136A000E132222EC50F0DF6E312A8E
:1044F8000D0E316482EF22F084EF22F06EEF22F08D
:104508002F6A460E1F18D8A48CEF22F08EEF22F0E7
:10451800B0EF22F0480E2018D8A495EF22F097EFBC
:1045280022F0B0EF22F02104D8A49DEF22F09FEFF3
:1045380022F0B0EF22F01F0E126E136A0D0E146EE9
:10454800CBEC40F02C18D8A4ACEF22F0AEEF22F060
:10455800B0EF22F0010E2F6E2F50D8A4B6EF22F044
:10456800B9EF22F0010EBAEF22F0000E306E316A78
:104578003050D8A4C2EF22F0C4EF22F0C9EF22F0E5
:104588002E6A000E2D6ED2EF22F031501F0FD96E19
:10459800DA6ADF501D6E1D502D6E2E6A830E31248F
:1045A800D96EDA6A010EDA226000B7F0DFFF312A2D
:1045B8000D0E3164E2EF22F0E4EF22F0BCEF22F0BE
:1045C800030EB8EC4EF0316A31C01DF0010E1E6EBC
:1045D8001D2AF1EF22F0D8901E361D2EEFEF22F0A3
:1045E8001E500001F9150009D8B4FDEF22F0FFEFC5
:1045F80022F003EF23F03150050FB8EC4EF0312ACA
:10460800070E31640AEF23F00CEF23F0E8EF22F0F5
:104618003050D8A412EF23F014EF23F017EF23F053
:10462800010E0101676F1200000197BF20EF23F010
:104638001EEF23F035EF23F02D0EF0EC52F094C06E
:1046480012F095C013F096C014F097C015F0FEEC68
:104658004DF012C094F013C095F014C096F015C038
:1046680097F094C08AF095C08BF096C08CF097C0F4
:104678008DF07BEC29F08AC09CF08BC09DF0000E79
:104688000001756F000E766F200E776F410E786F00
:104698009CC012F09DC013F0000E13BEFF0E146EE6
:1046A800156E010E45EC1CF012C034F013C035F045
:1046B80014C036F015C037F094C030F095C031F012
:1046C80096C032F097C033F02EEC4BF030C071F04A
:1046D80031C072F032C073F033C074F0C1EC08F02E
:1046E80071C098F072C099F073C09AF074C09BF0D2
:1046F800000E246E000E256E000E266E3F0E276EED
:1047080098C020F099C021F09AC022F09BC023F0F5
:1047180066EC06F020C08AF021C08BF022C08CF035
:1047280023C08DF07BEC29F08AC09EF08BC09FF0EF
:1047380000019F5109E10A0E9E5DD8A0A6EF23F063
:10474800A8EF23F0ADEF23F09C4B9D2B9F6B000E41
:104758009E6F9CC01FF09DC020F099EC31F02E0E8A
:10476800F0EC52F000019E51300FF0EC52F01200C4
:1047780088EC54F00001696F01016151FF0A0001E2
:1047880069150009D8A4CBEF23F0CEEF23F0010E72
:10479800CFEF23F0000E686F69C061F14050D8B4C4
:1047A800D8EF23F0DAEF23F0F8EF23F0010163519B
:1047B800D8B4E1EF23F0E3EF23F0F8EF23F0636BD5
:1047C80006EC4AF0A2EC47F012C01FF113C020F12A
:1047D80014C021F115C022F11FC11BF120C11CF129
:1047E80021C11DF122C11EF100016851D8B4FFEFAB
:1047F80023F001EF24F007EF24F069C03EF03F6A90
:10480800070E7FEC51F04050D8A40DEF24F00FEFC5
:1048180024F011EF24F059EF24F01FC11CF020C13F
:104828001DF021C11EF022C11FF082EC52F01F5072
:104838001E100BE1E80E1C5C030E1D58D8A027EFD4
:1048480024F029EF24F035EF24F0A2EC47F012C051
:104858001FF113C020F114C021F115C022F16AEC38
:104868004EF01BC11CF01CC11DF01DC11EF01EC165
:104878001FF082EC52F01F501E100BE1600E1C5C02
:10488800EA0E1D58D8A04BEF24F04DEF24F059EF55
:1048980024F0A2EC47F012C01BF113C01CF114C0A5
:1048A8001DF115C01EF10AEC41F0120088EC54F01D
:1048B800296E58EC54F0276E010E7AEC4AF04F0E30
:1048C8001F6EFA0E206EF6EC4CF029501AEC4EF0E2
:1048D800150E1F6EFD0E206EF6EC4CF027501AECEC
:1048E8004EF0460E1F6EFE0E206EF6EC4CF009ECF4
:1048F80053F00009D8A483EF24F085EF24F08AEF61
:1049080024F0246A300E236E8DEF24F0246A310ED1
:10491800236E2350F0EC52F02A6A040E2A6497EFB3
:1049280024F099EF24F09BEF24F0DEEF24F02AC066
:1049380021F0010E226E212AA4EF24F0D89022360D
:10494800212EA2EF24F02250286E295028140009A5
:10495800D8A4B1EF24F0B3EF24F0B5EF24F0DBEFE7
:1049680024F0200EF0EC52F02A505AEC4CF012C011
:104978001FF013C020F0F6EC4CF027502814000963
:10498800D8A4C9EF24F0CBEF24F0D1EF24F0240E03
:10499800256EFF0E266ED5EF24F0290E256EFF0E2C
:1049A800266E25C01FF026C020F0F6EC4CF02A2A0F
:1049B80091EF24F02950D8A4E4EF24F0E6EF24F096
:1049C800ECEF24F0520E1F6EFE0E206EF6EC4CF04B
:1049D800940E1F6EFA0E206EF6EC4CF0000E7AEC78
:1049E8004AF01200010E7AEC4AF0050E1F6EFE0E18
:1049F800206EF6EC4CF07FEC54F018EC34F012C05A
:104A08001FF013C020F0F6EC4CF01E0E1F6EFD0ECA
:104A1800206EF6EC4CF07FEC54F01AEC4EF0790E68
:104A28001F6EFD0E206EF6EC4CF073EC54F0286E01
:104A380028501F6E206A10EC3AF0CE0E1F6EFB0E47
:104A4800206EF6EC4CF070EC54F0286E28501F6E77
:104A5800206A10EC3AF02D6A200EF0EC52F02D503E
:104A6800020DCF0EF324F66EED0EF420F76E09005A
:104A78006F00D4FF1FF00A006F00D4FF20F0F6EC9F
:104A88004CF03D0EF0EC52F02D501DEC51F0286E1C
:104A980028501F6E206A10EC3AF02D2A070E2D645C
:104AA80058EF25F05AEF25F030EF25F05BEC54F085
:104AB8000009D8A462EF25F064EF25F07EEF25F019
:104AC800B8EC4CF00009D8A46CEF25F06EEF25F097
:104AD80074EF25F0760E2B6EFA0E2C6E78EF25F01B
:104AE800200E2B6EFB0E2C6E2BC029F02CC02AF04A
:104AF80082EF25F0130E296EFB0E2A6E29C01FF0D7
:104B08002AC020F0F6EC4CF0940E1F6EFA0E206EC0
:104B1800F6EC4CF0000E7AEC4AF0120082EC54F0FD
:104B28000001686FC7EC4FF0010E7AEC4AF03E0EB8
:104B38001F6EFC0E206EF6EC4CF0000168B1A7EF7A
:104B480025F0A9EF25F0AEEF25F0616B300E606F10
:104B5800B1EF25F0616B310E606F6051F0EC52F0EF
:104B6800E80E1F6EFD0E206EF6EC4CF0000168B3E7
:104B7800C0EF25F0C2EF25F0C7EF25F0636B300ECC
:104B8800626FCAEF25F0636B310E626F6251F0EC11
:104B980052F0700E1F6EFE0E206EF6EC4CF0000107
:104BA80068B9D9EF25F0DBEF25F0E0EF25F0656B6C
:104BB800300E646FE3EF25F0656B310E646F64515E
:104BC800F0EC52F07C0E1F6EFE0E206EF6EC4CF0F0
:104BD800000168BBF2EF25F0F4EF25F0F9EF25F0BE
:104BE800676B300E666FFCEF25F0676B310E666FF2
:104BF8006651F0EC52F0B80E1F6EFB0E206EF6EC0C
:104C08004CF084EC54F00AEC49F012C01FF013C0C9
:104C180020F0F6EC4CF0E10E1F6EFD0E206EF6EC67
:104C28004CF04FEC54F00AEC49F012C01FF013C0DE
:104C380020F0F6EC4CF0940E1F6EFA0E206EF6EC97
:104C48004CF0000E7AEC4AF012002E6E2D5067ECF4
:104C58004FF012C033F013C034F02E5064EC50F013
:104C68002BC01FF02CC020F0F6EC4CF0B60E1F6ED7
:104C7800FB0E206EF6EC4CF06000CFF0D9FF600020
:104C8800D3F0DAFFDF50D8A44CEF26F04EEF26F031
:104C980056EF26F0F30E1F6EFF0E206EF6EC4CF06A
:104CA800BEEF26F020EE01F03350D9263450DA2238
:104CB800DF50D8A462EF26F064EF26F069EF26F003
:104CC800306A300E2F6E6CEF26F0306A310E2F6E80
:104CD8002F50F0EC52F020EE02F03350D926345029
:104CE800DA22DF50D8A47BEF26F07DEF26F082EFA2
:104CF80026F0326A300E316E85EF26F0326A310EB8
:104D0800316E3150F0EC52F0380E1F6EFF0E206EEF
:104D1800F6EC4CF020EE05F03350D9263450DA2268
:104D28006F0078FF28F06F0074FF29F020EE03F081
:104D38003350D9263450DA22DF5015EC4DF03D0EB1
:104D48001F6EFF0E206EF6EC4CF020EE07F033508D
:104D5800D9263450DA226F0078FF28F06F0074FFEC
:104D680029F020EE04F03350D9263450DA22DF50EF
:104D780015EC4DF01200050E3424396E000E352066
:104D88003A6E6000E7F0F6FF6000EBF0F7FF08000E
:104D98006F00D4FF1DF036C01EF06000D3F0F6FFA0
:104DA8006000D7F0F7FF0800F55060EC49F0000903
:104DB800D8A4E1EF26F0E3EF26F0E6EF26F0000EA8
:104DC80051EF27F0150E396EC60EE82EFED7392E94
:104DD800FCD700D0040E3424396E000E35203A6E0C
:104DE8006000E7F0F6FF6000EBF0F7FF08006F00E7
:104DF800D4FF1FF03D0E206E6000D3F0F6FF600078
:104E0800D7F0F7FF0800F55035EC49F00009D8A4B1
:104E180010EF27F012EF27F014EF27F0E3EF26F05A
:104E28003DC02BF03EC02CF00C0E2E6EE40E2D6E05
:104E3800DFEC44F02BC03BF02CC03CF03BC012F040
:104E48003CC013F0146A156AEE0E166E070E176E44
:104E5800000E186E000E196E14EC45F012C01EF00C
:104E680013C01FF014C020F015C021F0B00E226E40
:104E7800040E236E000E246E000E256E6DEC39F0C4
:104E88006000DFF0D9FF6000E3F0DAFF60007BF03C
:104E9800DEFF60007FF0DDFF010E12000001666B8F
:104EA800A2EC47F012C060F013C061F014C062F0C9
:104EB80015C063F000016B6B640E346E356A010E29
:104EC8004BEC30F00009D8B46CEF27F06EEF27F008
:104ED80070EF27F00001662B00016B2B070E6B6546
:104EE80078EF27F07AEF27F060EF27F060C01CF02A
:104EF80061C01DF062C01EF063C01FF082EC52F06A
:104F08001CC067F01DC068F01EC069F01FC06AF0C1
:104F1800010E7AEC4AF0510E1F6EFB0E206EF6EC75
:104F28004CF0206A080E1F6E10EC3AF00B0E1F6E44
:104F3800FF0E206EF6EC4CF066C01FF0206A10ECF5
:104F48003AF0590E1F6EFD0E206EF6EC4CF067C05D
:104F58002BF068C02CF069C02DF06AC02EF0DCEC94
:104F680032F0D60E1F6EFC0E206EF6EC4CF067C0C9
:104F78003BF068C03CF069C03DF06AC03EF0040EEA
:104F8800CBEF27F0D8903E323D323C323B32E82E10
:104F9800C6EF27F03BC02BF03CC02CF03DC02DF0F5
:104FA8003EC02EF0DCEC32F0F70E1F6EFE0E206EC7
:104FB800F6EC4CF0000E7AEC4AF01200010E7AEC96
:104FC8004AF08A0E1F6EF90E206EF6EC4CF00001C6
:104FD800676B67C066F049506719D8B4F6EF27F0D9
:104FE800F8EF27F0FDEF27F0636B200E626F00EFFC
:104FF80028F0636B3E0E626F6251F0EC52F00001D4
:105008006751310FF0EC52F0130E1F6EFC0E206E3C
:10501800F6EC4CF0000166513AEC4CF012C01FF06F
:1050280013C020F00B0E216EE6EC42F00001665131
:105038008CEC4DF012C032F013C033F0040E346E15
:1050480085EC2BF0120E1F6EFC0E206EF6EC4CF069
:105058000001665199EC4CF012C032F013C033F0E5
:10506800040E346E85EC2BF0000166518CEC4DF08B
:1050780012C060F013C061F00001665199EC4CF069
:1050880012500001601907E113506119D8A44FEFBD
:1050980028F051EF28F057EF28F0940E646FFA0EBD
:1050A800656F5BEF28F0DF0E646FFA0E656F64C002
:1050B8001FF065C020F0F6EC4CF00001672B050EE0
:1050C800676569EF28F06BEF28F0EDEF27F0000E29
:1050D8007AEC4AF01200256A1D502524D96EDA6A46
:1050E80025C012F0136A22EC50F0DF6E252A0D0E4F
:1050F800256481EF28F083EF28F070EF28F0236A09
:105108001D50D96EDA6A500EDE18D8A48EEF28F03A
:1051180090EF28F0AEEF28F01D50D96EDA6A010E34
:10512800D926330EDE18D8A49CEF28F09EEF28F07D
:10513800AEEF28F01D50D96EDA6A020ED926030E9A
:10514800DE18D8A4AAEF28F0ACEF28F0AEEF28F0CC
:10515800010E236E1E50D96EDA6A2350D8A4B7EF19
:1051680028F0BAEF28F0010EBBEF28F0000EDF6E32
:105178001DC012F0136A0D0E146ECBEC40F0206EB9
:105188001D50D96EDA6A0D0ED926DE502018D8B413
:10519800D0EF28F0D4EF28F0226A222AD5EF28F0A1
:1051A800226A1F50D96EDA6A60008BF0DFFF246A2A
:1051B8001E50D96EDA6ADF50D8B4E5EF28F0E7EF71
:1051C80028F0F4EF28F01F50D96EDA6ADF50D8B40F
:1051D800F0EF28F0F2EF28F0F4EF28F0010E246E3B
:1051E800245012001B6A19BEFEEF28F0FCEF28F0CD
:1051F80008EF29F0191E181E171E166C000E17222C
:1052080018221922010E1B6E15BE0FEF29F00DEFA3
:1052180029F019EF29F0151E141E131E126C000E2A
:10522800132214221522010E1B1A000E1C6E000EEA
:105238001D6E000E1E6E000E1F6E165017101810F1
:105248001910D8B42AEF29F02CEF29F062EF29F0D1
:10525800010E1A6E36EF29F0D89016361736183622
:1052680019361A2A19AE3BEF29F03DEF29F030EF35
:1052780029F0D8901C361D361E361F361650125C83
:10528800175013581850145819501558D8A04FEFE4
:1052980029F051EF29F05AEF29F01650125E1750F5
:1052A800135A1850145A1950155A1C80D89019328C
:1052B8001832173216321A2E3DEF29F01B50D8B487
:1052C80068EF29F06AEF29F072EF29F01F1E1E1E01
:1052D8001D1E1C6C000E1D221E221F221CC012F057
:1052E8001DC013F01EC014F01FC015F012000001FD
:1052F8008C358D35936F9351D8A485EF29F087EFBE
:1053080029F091EF29F0000E8A6F000E8B6F000EC6
:105318008C6F000E8D6FFEEF29F08AC08EF08BC067
:105328008FF08CC090F08DC091F0200EA1EF29F085
:10533800D890913390338F338E33E82E9CEF29F039
:105348008E51926F8C8FFF0E8A17FF0E8B17FF0EF0
:105358008C17000E8D17960E935F93BFB8EF29F048
:10536800B6EF29F0CEEF29F09351800A970FD8B005
:10537800C0EF29F0C2EF29F0C4EF29F087EF29F038
:10538800D8908D338C338B338A33933FC4EF29F015
:10539800E6EF29F01F0E9365D4EF29F0D6EF29F038
:1053A800DEEF29F087EF29F0D8908A378B378C37D2
:1053B8008D3793079351D8A4E4EF29F0E6EF29F04D
:1053C800D8EF29F09251D8B4ECEF29F0EEEF29F09C
:1053D800F6EF29F08D1F8C1F8B1F8A6D000E8B2313
:1053E8008C238D238AC08AF08BC08BF08CC08CF004
:1053F8008DC08DF012003D6E080E3D6406EF2AF058
:1054080008EF2AF00AEF2AF081EF2AF03D50020D4A
:10541800800EF324126E020EF420136E84EC4EF00C
:105428009B0E126E010E136E84EC4EF04050D8A401
:1054380020EF2AF022EF2AF024EF2AF081EF2AF059
:105448005AEC43F00009D8A42CEF2AF02EEF2AF0EA
:1054580030EF2AF081EF2AF0450EE7EC45F02C0EEC
:10546800F0EC52F03D50060D630EF324F66EED0E8F
:10547800F420F76E09006F00D4FF1FF00A006F00D8
:10548800D4FF20F0F6EC4CF03D50060D040EF32648
:10549800000EF422630EF324F66EED0EF420F76E80
:1054A80009006F00D4FF21F00A006F00D4FF22F03A
:1054B80060C023F061C024F00CEC50F00001625190
:1054C800D8B469EF2AF06BEF2AF07FEF2AF0730E59
:1054D800216EFF0E226E63C023F064C024F00CEC32
:1054E80050F0830E216EFF0E226E65C023F066C059
:1054F80024F00CEC50F0C9EC52F01200000E241409
:105508002C6E000E25142D6E800E26142E6E7F0E26
:1055180027142F6E2C502D102E102F10D8A497EF73
:105528002AF099EF2AF0A1EF2AF0000E246E000E5F
:10553800256E000E266E000E276E000E28142C6EA7
:10554800000E29142D6E800E2A142E6E7F0E2B1439
:105558002F6E2C502D102E102F10D8A4B6EF2AF035
:10556800B8EF2AF0C0EF2AF0000E286E000E296E60
:10557800000E2A6E000E2B6E27AEC5EF2AF0C7EF7D
:105588002AF0D0EF2AF0246C251ED8B0252A261E32
:10559800D8B0262A800E27562BAED5EF2AF0D7EFA3
:1055A8002AF0E0EF2AF0286C291ED8B0292A2A1EF2
:1055B800D8B02A2A800E2B56000E241A000E251A5F
:1055C800000E261A800E271A000E281A000E291A15
:1055D800000E2A1A800E2B1A2850245C29502558B0
:1055E8002A5026582B502758D8B0FDEF2AF0FFEF45
:1055F8002AF002EF2BF0D89003EF2BF0D88012009E
:10560800A2EC47F012C064F013C065F014C066F055
:1056180015C067F064C012F065C013F066C014F0DE
:1056280067C015F0E80E166E030E176E000E186EA2
:10563800000E196E3EEC3EF012C068F013C069F01F
:105648005B0EF0EC52F064C01EF065C01FF066C03F
:1056580020F067C021F0E80E226E030E236E000EC4
:10566800246E000E256E6DEC39F01EC060F01FC070
:1056780061F020C062F021C063F060C02BF061C00F
:105688002CF062C02DF063C02EF0DCEC32F02E0E50
:10569800F0EC52F068C012F069C013F0156A640E9D
:1056A800146E93EC43F01250300FF0EC52F0156A80
:1056B8000A0E146E68C012F069C013F093EC43F040
:1056C80012C019F013C01AF01C6A0A0E1B6E7FEC88
:1056D80046F01950300FF0EC52F068C019F069C06C
:1056E8001AF01C6A0A0E1B6E7FEC46F01950300F38
:1056F800F0EC52F0E40E1F6EFF0E206EF6EC4CF04C
:10570800120033BE8AEF2BF08CEF2BF097EF2BF0C3
:1057180032C03CF033C03DF0000E3DBEFF0E3E6E81
:105728003F6EB1EF2BF032C035F033C036F0000ECB
:1057380036BEFF0E376E386E351E361E371E381EC3
:10574800352A000E36223722382235C03CF036C0C2
:105758003DF037C03EF038C03FF033BEB6EF2BF017
:10576800B8EF2BF0BDEF2BF03A6A010E396EC0EF9F
:105778002BF03A6A020E396E39C03BF0DFEF2BF09E
:105788003CC012F03DC013F03EC014F03FC015F00D
:105798000A0E166E000E176E000E186E000E196EA9
:1057A800F6EC28F012C03CF013C03DF014C03EF0F7
:1057B80015C03FF03B2A3FBEEFEF2BF03F503E10A5
:1057C8003D1007E10A0E3C5CD8B0EDEF2BF0EFEF8F
:1057D8002BF0C4EF2BF0F5EF2BF0200EF0EC52F08D
:1057E8003B2A34503B5CD8A0FCEF2BF0FEEF2BF0AB
:1057F800F1EF2BF032C01FF033C020F099EC31F0FC
:105808001200286E56EF2CF0010EC7EC53F081EF12
:105818002CF0020EC7EC53F081EF2CF0030EC7EC0E
:1058280053F081EF2CF0040EC7EC53F081EF2CF00D
:10583800050EC7EC53F081EF2CF0060EC7EC53F0C1
:1058480081EF2CF0070EC7EC53F081EF2CF04FECF2
:105858004FF081EF2CF055EC54F00009D8B437EF35
:105868002CF03AEF2CF0010E3BEF2CF0000E1EEC62
:1058780054F0FDEC47F081EF2CF052EC54F00009A5
:10588800D8B449EF2CF04CEF2CF0010E4DEF2CF072
:10589800000E22EC54F0D0EC47F081EF2CF0000E13
:1058A80082EF2CF02850310AD8B408EF2CF0030A04
:1058B800D8B40DEF2CF0010AD8B412EF2CF0070A77
:1058C800D8B417EF2CF0010AD8B41CEF2CF0030A57
:1058D800D8B421EF2CF0010AD8B426EF2CF0560AE0
:1058E800D8B42FEF2CF0040AD8B441EF2CF0130AE7
:1058F800D8B42BEF2CF053EF2CF0010E1200A2ECD1
:1059080047F012C020F013C021F014C022F015C0D7
:1059180023F001016551D8A494EF2CF096EF2CF0F8
:10592800A2EF2CF0010E656F20C023F121C024F1F5
:1059380022C025F123C026F1FFEF2CF02351205C73
:105948001C6E245121581D6E255122581E6E265159
:1059580023581F6E20C023F121C024F122C025F155
:1059680023C026F11F5006E11E04D8B0BEEF2CF06C
:10597800C0EF2CF0C6EF2CF01CC024F01DC025F0A1
:10598800C8EF2CF02468256824C059F125C05AF1C5
:1059980053515411D8B4D3EF2CF0D5EF2CF0E0EFDD
:1059A8002CF05751245C58512558D8B0DEEF2CF014
:1059B800E0EF2CF0E4EF2CF024C057F125C058F1AB
:1059C8002450555D25505659D8B0EDEF2CF0EFEF27
:1059D8002CF0F3EF2CF024C055F125C056F15329D3
:1059E80008E15429D8B4FBEF2CF0FDEF2CF0FFEFC1
:1059F8002CF0534B542B12001E501F10D8B407EF35
:105A08002DF009EF2DF012EF2DF020502110D8A421
:105A180010EF2DF012EF2DF015EF2DF0000E7CEFAA
:105A28002DF01E50205C1F502158D8A01EEF2DF0DD
:105A380020EF2DF026EF2DF020C026F021C027F012
:105A48002AEF2DF01EC026F01FC027F01E50205C44
:105A58001F502158D8A033EF2DF035EF2DF03DEF32
:105A68002DF01E50205C286E1F502158296E43EFE0
:105A78002DF020501E5C286E21501F58296E26C01C
:105A880012F027C013F0146A156A0A0E166E000E7B
:105A9800176E000E186E000E196E14EC45F012C049
:105AA80022F013C023F014C024F015C025F028C03C
:105AB80012F029C013F0146A156A640E166E000EEF
:105AC800176E000E186E000E196E14EC45F0125089
:105AD800225C135023581450245815502558D8B018
